S01100004765656B53706F72742E737265637F
S11300000C94AF030C9417130C94CC030C94CC03F2
S11300100C94CC030C94CC030C94B4080C94CC0333
S11300200C94CC030C94CC030C94CC030C94561376
S11300300C94D6130C94CC030C9453040C94CC035E
S11300400C94CC030C949D140C9458150C942E15FC
S11300500C94CC030C94CC030C94CC030C94CC03E0
S11300600C94AC090C94CC030C94CC030C94CC03EA
S11300700C94CC030C94CC030C94CC030C94CC03C0
S11300800C94CC030C94CC030C94CC030C94CC03B0
S11300900C94CC030C94CC030C94CC030C94CC03A0
S11300A00C94CC030C94CC030C94CC030C94CC0390
S11300B00C94CC034F6666004F6E00426C756574F9
S11300C06F6F74683A20002C200054696D652073AA
S11300D0657474696E67733A005765656B6461791A
S11300E0202D2000446174653A2030302E30302EAB
S11300F030300054696D653A2030303A3030004475
S11301006563004E6F76004F637400536570004161
S11301107567004A756C65004A756E65004D6179B6
S113012000417072004D617200466562004A616E62
S11301300053617400467269005468750057656421
S113014000547565004D6F6E0053756E00576865F9
S1130150656C20286D6D293A2030303030005365AD
S11301607474696E6773003230313800525620451A
S11301706C656374726F6E69637300446576656C55
S11301806F7065723A004765656B53706F727400E7
S11301905765656B646179202D2000446174653A6C
S11301A02030302E30302E30300054696D653A20C6
S11301B030303A3030000000008080808080800041
S11301C00000000001030303030303010000000017
S11301D0000000000000000000000000000000C05B
S11301E0C000000000000000028686868686860223
S11301F00000000081C3C3C3C3C3C381000000FC6B
S11302007A0606060606067AFC00007EBCC0C0C05C
S1130210C0C0C0BC7E0000000000000000000078E8
S1130220FC000000000000000000003C7E00000014
S1130230028686868686867AFC00007EBDC3C3C39A
S1130240C3C3C38100000000028686868686867A40
S1130250FC00000081C3C3C3C3C3C3BD7E0000FC54
S11302607880808080808078FC0000000103030394
S11302700303033D7E0000FC7A868686868686021A
S11302800000000081C3C3C3C3C3C3BD7E0000FC20
S11302907A868686868686020000007EBDC3C3C336
S11302A0C3C3C3BD7E000000020606060606067A26
S11302B0FC000000000000000000003C7E0000FC88
S11302C07A8686868686867AFC00007EBDC3C3C392
S11302D0C3C3C3BD7E0000FC7A8686868686867A82
S11302E0FC00000081C3C3C3C3C3C3BD7E000000C0
S11302F000007C7C7C7C00000000000000003E3E8E
S11303003E3E000000000000000000000000002F3E
S1130310000000000700070000147F147F1400246D
S11303202A7F2A120023130864620036495522509A
S113033000000503000000001C22410000004122CF
S11303401C000014083E08140008083E08080000B9
S113035000A06000000808080808000060600000B1
S1130360002010080402003E5149453E0000427F2F
S11303704000004261514946002141454B3100187B
S113038014127F10002745454539003C4A4949303D
S113039000017109050300364949493600064949F7
S11303A0291E000036360000000056360000000802
S11303B014224100001414141414000041221408DF
S11303C000020151090600324959513E007C1211C4
S11303D0127C007F49494936003E41414122007F59
S11303E04141221C007F49494941007F0909090113
S11303F0003E4149497A007F0808087F0000417F98
S11304004100002040413F01007F08142241007F49
S113041040404040007F020C027F007F0408107FB0
S1130420003E4141413E007F09090906003E415119
S1130430215E007F091929460046494949310001D6
S1130440017F0101003F4040403F001F2040201F2A
S1130450003F4038403F00631408146300070870ED
S1130460080700615149454300007F414100AA55F6
S1130470AA55AA55000041417F000004020102046C
S11304800040404040400000030500000020545458
S11304905478007F484444380038444444200038A9
S11304A04444487F00385454541800087E0901021B
S11304B00018A4A4A47C007F080404780000447DF0
S11304C04000004080847D00007F1028440000002C
S11304D0417F4000007C04180478007C0804047800
S11304E000384444443800FC2424241800182424EC
S11304F018FC007C080404080048545454200004E8
S11305003F444020003C4040207C001C2040201CF4
S1130510003C4030403C004428102844001CA0A06B
S1130520A07C004464544C440000107C8200000011
S113053000FF00000000827C10000000060909068C
S1130540000000000000005F000000070007001426
S11305507F147F14242A7F2A1223130864623649E5
S11305605522500005030000001C224100004122D6
S11305701C0014083E081408083E08080050300007
S11305800008080808080060600000201008040241
S11305903E5149453E00427F400042615149462157
S11305A041454B311814127F1027454545393C4AC3
S11305B04949300171090503364949493606494913
S11305C0291E003636000000563600000814224169
S11305D000141414141400412214080201510906D1
S11305E0324979413E7E1111117E7F494949363E97
S11305F0414141227F4141221C7F494949417F09B0
S11306000909013E4149497A7F0808087F00417F72
S113061041002040413F017F081422417F40404077
S1130620407F020C027F7F0408107F3E4141413E1F
S11306307F090909063E4151215E7F091929464671
S11306404949493101017F01013F4040403F1F209A
S113065040201F3F4038403F63140814630708706C
S113066008076151494543007F41410002040810D5
S1130670200041417F000402010204404040404008
S1130680000102040020545454787F48444438380C
S113069044444420384444487F3854545418087E11
S11306A00901020C5252523E7F0804047800447D32
S11306B040002040443D007F1028440000417F401A
S11306C0007C041804787C080404783844444438D2
S11306D07C14141408081414187C7C0804040848B6
S11306E054545420043F4440203C4040207C1C206F
S11306F040201C3C4030403C44281028440C5050BE
S1130700503C4464544C44000836410000007F00CF
S11307100000413608001008081008784641467861
S11307203030004473743A20004176653A20004D1D
S113073061783A200054696D653A20004F646F3A3D
S11307402000206B6D2F6800206B6D005768656575
S11307506C20286D6D293A2030303030000011248F
S11307601FBECFEFD8E0DEBFCDBF11E0A0E0B1E007
S1130770EAEBFBE202C005900D92A433B107D9F76E
S113078023E0A4E3B1E001C01D92A032B207E1F777
S11307900E94520F0C94DB150C940000E1ECF0E085
S11307A08081877680830895CF9380917601882312
S11307B009F445C08130E1F50E94500A1092FA0113
S11307C08091FA01811131C0C1E00EC080913401E1
S11307D0882381F188EB90E00E94CA0B0E94220FCB
S11307E08091FA01811121C064E080E00E949D0A99
S11307F08BEB90E00E94CA0B809175018111E6CFCA
S113080080913401882339F08091C10087768093E8
S1130810C1001092340184EB90E00E94CA0B0E9444
S1130820220F8091FA018823F9F2CF910C94500A97
S1130830CF9108950E94D014C0933401CBCF60E0CF
S113084080E00E949D0A85E391E00E94BA0BCF915B
S11308500C94220F21E030E002C0220F331F6A956E
S1130860E2F790E02823392381E0232B09F480E088
S1130870089587B1837F87B98AB18F768AB988B1A1
S11308808C6088B98BB180698BB984B5826084BD72
S113089085B5846085BDEEE6F0E08081826080836A
S11308A08BE387BD08951F920F920FB60F92112408
S11308B02F933F934F935F936F937F938F939F9364
S11308C0AF93BF93EF93FF938091C90132993FC0D7
S11308D090917A01992309F463C0339935C09091BA
S11308E07901992309F443C04C992BC09091780164
S11308F0992381F14F9922C08091770181110DC014
S113090081E0809377018091C801811106C09BB179
S113091080E489278BB91092C701FF91EF91BF91B1
S1130920AF919F918F917F916F915F914F913F9183
S11309302F910F900FBE0F901F9018951092770172
S1130940ECCF10927801D6CF10927901CDCF1092CE
S11309507A01C3CF91E0909378011092C70183305C
S1130960B9F110F0843031F60E94AF07C3CF91E0A3
S1130970909379011092C701209100012223F9F08C
S1130980823009F455C0E8F1833089F1843009F0EC
S1130990ABCF20910101211112C090930101A4CF8A
S11309A091E090937A011092C7012FEF280F233022
S11309B048F0882309F491CF9093C9018ECF909386
S11309C0000192CF9091C9019F5F9093C90185CF97
S11309D080917601882311F1813009F08BCF9091B9
S11309E075019827909375018093FA0183CF9091B4
S11309F07601911127C0909176019F5F90937601C3
S1130A0073CF813009F070CF90917B01911117C0A1
S1130A1090917B019F5F90937B0166CF80917501DC
S1130A20882309F467CF85E391E00E94091562CF1A
S1130A309091F101923048F01092F10155CF10924B
S1130A407B0152CF109276014FCF9091F1019F5FBD
S1130A509093F10149CF399A419A089580ED80939A
S1130A6000001092010010920200E1EAF1E081819D
S1130A708093030082818093040083818093050026
S1130A80848180930600858180930700868180930A
S1130A90080069E080E090E00C946209EF92FF9214
S1130AA01F93CF93DF937C01142FC0E0D0E080ED3F
S1130AB08883698362E080E090E00E94620981EDAE
S1130AC08883612F80E090E00E946209612FC70152
S1130AD0DF91CF911F91FF90EF900C948E098EE7D8
S1130AE091E090937D0180937C0148E060E00E9456
S1130AF04E05E0917C01F0917D018081982F9295C3
S1130B009F708F702AE0929F800D112480838181D1
S1130B10982F92959F708F702AE0929F800D1124D8
S1130B2081838281982F92959F708F702AE0929F83
S1130B30800D112482838381982F92959F708F70EA
S1130B402AE0929F800D112483838481982F9295AB
S1130B509F708F702AE0929F800D11248483858179
S1130B60982F92959F708F702AE0929F800D112488
S1130B7085838681982F92959F708F702AE0929F2B
S1130B80800D112486830895CF931092F901109259
S1130B90F8011092000180910001811112C080912E
S1130BA0F8019091F901039720F01092F901109245
S1130BB0F80165E185E20E94A40780910001882381
S1130BC071F3109200018091F8019091F901C82FFE
S1130BD0C295C07F1092F9011092F8018091000132
S1130BE0811108C065E18BE20E94A4078091000195
S1130BF08823C1F3109200018091F8019091F901CA
S1130C008C2B8093A3011092F9011092F80180912A
S1130C100001811112C08091F8019091F9010697A9
S1130C2020F01092F9011092F80165E187E30E9427
S1130C30A40780910001882371F310920001809130
S1130C40F8019091F901C82FC295C07F1092F90163
S1130C501092F80180910001811108C065E18DE3D3
S1130C600E94A407809100018823C1F3109200011F
S1130C708091F8019091F9018C2B8093A20110923C
S1130C80F9011092F80180910001811112C0809144
S1130C90F8019091F901049720F01092F901109253
S1130CA0F8016EE185E20E94A40780910001882387
S1130CB071F3109200018091F8019091F901C82F0D
S1130CC0C295C07F1092F9011092F8018091000141
S1130CD0811108C06EE18BE20E94A407809100019B
S1130CE08823C1F3109200018091F8019091F901D9
S1130CF08C2B8093A5011092F9011092F801809138
S1130D000001811112C08091F8019091F9010297BC
S1130D1020F01092F9011092F8016EE187E30E942D
S1130D20A40780910001882371F31092000180913F
S1130D30F8019091F901C82FC295C07F1092F90172
S1130D401092F80180910001811108C06EE18DE3D9
S1130D500E94A407809100018823C1F3109200012E
S1130D608091F8019091F9018C2B8093A601109247
S1130D70F9011092F80180910001811108C06EE11F
S1130D8089E40E94A407809100018823C1F3109292
S1130D9000018091F8019091F901C82FC295C07F9C
S1130DA01092F9011092F80180910001811108C09C
S1130DB06EE18FE40E94A407809100018823C1F3AF
S1130DC0109200018091F8019091F9018C2B80938D
S1130DD0A7011092F9011092F8018091000181118C
S1130DE020C08091F8019091F901079720F01092AA
S1130DF0F9011092F80167E28CE30E949D0AE091E8
S1130E00F801F091F901EE0FFF1FE55EFE4F8081BE
S1130E1091810E94CA0B0E94220F809100018823B5
S1130E2001F38091F8019091F9018F5F8093A401FF
S1130E30CF910C942E050F9380917B01882361F14F
S1130E40813041F50E94500A60E080E00E949D0AD2
S1130E508AEC90E00E94CA0B65E180E00E949D0A42
S1130E6083EF90E00E94CA0B6EE180E00E949D0A2D
S1130E7084EE90E00E94CA0B67E280E00E949D0A23
S1130E8089ED90E00E94CA0B0E94C4050E94500A9A
S1130E9010927B010F9108950E946F0504E02FE2E8
S1130EA043E567E080E00E94FF0E6CE08CE00E9466
S1130EB09D0AE0917C01F0917D01628170E080E007
S1130EC090E00E94A90E8AE30E94DE0BE0917C016F
S1130ED0F0917D01618170E080E090E00E94A90EB4
S1130EE06EE186E00E949D0AE0917C01F0917D0113
S1130EF0E381F0E0EE0FFF1FE75EFE4F80819181FA
S1130F000E94CA0B87EC90E00E94CA0BE0917C011E
S1130F10F0917D01E581F0E0EE0FFF1FEF5FFE4FE2
S1130F20808191810E94CA0B80E20E94A30BE09110
S1130F307C01F0917D01648170E080E090E00E948A
S1130F40A60E0F910C94220F0E949D0A8091F80125
S1130F509091F901805D0E94A00B0C94220F809166
S1130F60F8019091F901893038F48F5F90E0909303
S1130F70F9018093F801089580E090E09093F901DD
S1130F808093F80108950E945C090E9494145E986D
S1130F9080E00E94350F419883B7817F83BFE4E6E8
S1130FA0F0E080818E68808383B7816083BF85B7DA
S1130FB0806685BF85B7806485BF85B78F7D85BF13
S1130FC0789488950895CF93C0910101CC23C1F101
S1130FD0C130A1F50E94500A60E083E10E949D0A9D
S1130FE08EE591E00E94CA0B6BE083E00E949D0AAB
S1130FF08DE491E00E94A60B65E180E00E949D0AC9
S11310008AEA91E00E94CA0B6EE180E00E949D0A88
S11310108BE991E00E94CA0B67E280E00E949D0A7E
S113102080E991E00E94CA0B0E94620F0E94500A5C
S11310300E94220F10920101C093C901CF9108951B
S113104062E084E10E949D0A86E891E00E94CA0B56
S11310506CE082E00E949D0A8BE791E00E94CA0B3B
S113106065E180E00E949D0A8CE691E00E94CA0B33
S113107068E286E30E949D0A87E691E00E94CA0B1B
S1131080CF910C94220F823009F451C058F084306F
S1131090D9F008F43EC0863529F58091C801811144
S11310A054C00895882301F18130E9F48091C90185
S11310B09091C401981731F08091C9018093C401C3
S11310C00E94500A0C941B078091C9019091C4019D
S11310D0981731F08091C9018093C4010E94500A8D
S11310E00C94E307089508958091C9019091C40177
S11310F0981731F08091C9018093C4010E94500A6D
S11311000E94E3078091C9019091C4019813D4CF40
S1131110D9CF8091C9019091C401981731F0809181
S1131120C9018093C4010E94500A0C94D403809195
S1131130C9019091C401981731F08091C90180933D
S1131140C4010E94500A0C94F50F0E94D01489E245
S113115091E00E94E9140E94CE03F8940E94500A80
S11311600E94220F0C94C3071F920F920FB60F9286
S113117011242F933F934F935F936F937F938F9398
S11311809F93AF93BF93CF93EF93FF938091C80145
S1131190811137C08091C701811119C081E080930A
S11311A0C7011092C6011092C501FF91EF91CF9132
S11311B0BF91AF919F918F917F916F915F914F916B
S11311C03F912F910F900FBE0F901F901895809113
S11311D0C8018111E3CF8091C5019091C6010196A8
S11311E09093C6018093C5018091C5019091C60179
S11311F00597D8F281E08093C80186E58093C90100
S1131200D4CF89B167E00E942A04811121C0809162
S113121077018111CACFC1E0C093770183B78E7F74
S113122083BFF89480916400817780936400419A2D
S11312300E94801441E060EA76E881E090E00E9438
S11312402B091092C8011092C701C093C901ADCFF8
S113125010927701AACF0F931F93CF938B019C0118
S1131260C42F87B18F7C87B988B1806388B960E463
S113127072E48FE090E0A90198010E947815CA01F8
S1131280B90160517109810991094C2F50E09A010B
S1131290220F331F032E000C440B550B0E947815AC
S11312A02093B80081E08093B90084E08093BC006F
S11312B0CF911F910F910895ECEBF0E080818B7F2B
S11312C080830895CF93DF93EC019091BC0090FD4F
S11312D0FCCF6093CB0188818093DC01888180FD01
S11312E015C0623098F0FE0131966250262F30E02E
S11312F02E5F3F4F2C0F3D1FDF01AC1BBD0B9191A7
S1131300A452BE4F9C93E217F307B1F71092EC017D
S113131085EA8093BC00DF91CF910895DC01909120
S1131320BC0090FDFCCF8091EC0180FF13C06623CC
S113133089F091E0292F30E0F901E453FE4F408118
S11313402A0F3B1FF901319740839F5F691790F77C
S11313508091EC01817008951F920F920FB60F9245
S113136011248F939F93EF93FF938091B900887F0B
S1131370803309F45DC038F18834A1F1A0F08835D8
S113138061F1883F09F458C0803579F5E091CA01CC
S113139081E08E0F8093CA01F0E09091BB00E4538A
S11313A0FE4F908307C0883309F442C08034E9F4C7
S11313B08091CA019091CB01891708F041C085EC56
S11313C08093BC0012C0803109F440C0B8F481118C
S11313D03BC085E98093BC0008C08091EC0181602A
S11313E08093EC0184E98093BC00FF91EF919F917D
S11313F08F910F900FBE0F901F9018958032C1F0FF
S1131400883211F0883189F7E091CA018091CB01CB
S1131410E81718F781E08E0F8093CA01F0E0E452D8
S1131420FE4F80818093BB0085E88093BC00DDCFB4
S113143085EA8093BC00D9CF84E08093BC00D5CFEB
S113144085E88093BC00D1CF883079F61092CA0128
S1131450E0E0DCCF962F969596959695E82FF0E0F0
S113146084E5989FE00DF11D1124E151FE4F677052
S113147081E090E001C0880F6A95EAF79281892B98
S113148082830895611106C028982A980E949814AE
S11314902A9A0895289A2A980E9498142A9A0895B4
S11314A088EF91E0E1EFF1E0DF019C011D92215012
S11314B03040E1F70895CF93DF9384B1836084B91A
S11314C0569A299A2A9A299883EC99E00197F1F778
S11314D000C00000299A60E081E20E94420A60E0B4
S11314E080E90E94420A60E087E00E94420A60E0CC
S11314F081E10E94420A60E080E20E94420A60E0C8
S11315008CE00E94420AC8EFD1E061E080E00E94D2
S1131510420A2197D1F7DF91CF910895CF93C62F37
S11315202A9860E080680E94420A60E08C2F806400
S11315300E94420A2A9ACF910895EFEEF1E0808347
S113154061830895DF92EF92FF920F931F93CF93DD
S1131550DF93282F653009F481C0663009F068C034
S11315606091F0018091EF01022E000C330B2052A8
S11315703109E901CC0FDD1FC20FD31FCC0FDD1FD2
S1131580CA5FDC4F36E0D32E01E010E0FE01249167
S11315902093EE01E12CF12C26C041E0460F40934C
S11315A0F001962F969596959695E82FF0E024E510
S11315B0929FE00DF11D1124E151FE4F67709801D7
S11315C001C0220F6A95EAF7922F90952281922307
S11315D09283642F9FEFE91AF90AE8E0EE16F1040A
S11315E0E1F02091EE0130E00E2C02C035952795F4
S11315F00A94E2F720FFD1CF91E0960F9093F00187
S11316000E942A0A8091EF016091F0019FEFE91A8C
S1131610F90AE8E0EE16F10421F78F5F8093EF01F9
S113162068506093F001DA942196D110AFCF02C0D4
S11316308091EF01803550F01092EF018091F0011C
S1131640885F803308F472C01092F001DF91CF916B
S11316501F910F91FF90EF90DF9008956091F0013A
S11316608091EF01022E000C330B20523109E90165
S1131670CC0FDD1FCC0FDD1FC20FD31FC05CDA4FB0
S113168055E0D52E01E010E0FE0124912093EE01F7
S1131690E12CF12C26C041E0460F4093F001962F37
S11316A0969596959695E82FF0E024E5929FE00DA7
S11316B0F11D1124E151FE4F6770980101C0220F02
S11316C06A95EAF7922F9095228192239283642F50
S11316D09FEFE91AF90AE8E0EE16F104E1F020912F
S11316E0EE0130E00E2C02C0359527950A94E2F7FE
S11316F020FFD1CF91E0960F9093F0010E942A0A27
S11317008091EF016091F0019FEFE91AF90AE8E096
S1131710EE16F10421F78F5F8093EF016850609318
S1131720F001DA942196D110AFCF84CF8093F001E9
S1131730DF91CF911F910F91FF90EF90DF9008956B
S113174065E00C94A20A66E00C94A20ACF93DF939E
S1131750EC01FC018491882351F0FE0121968491CF
S113176065E00E94A20AFE0184918111F6CFDF9107
S1131770CF910895CF93DF93EC018881882339F0CA
S1131780219666E00E94A20A89918111FACFDF9125
S1131790CF910895CF93DF93EC01FC0184918823CA
S11317A051F0FE012196849166E00E94A20AFE0196
S11317B084918111F6CFDF91CF910895BF92CF929A
S11317C0DF92EF92FF920F931F93CF93DF93609179
S11317D0F0019091EF0148E1840290011124F90194
S11317E0E657F2406F0182E0B82E01E010E0760186
S11317F08CE0E81AF108392F962FF70124912093F1
S1131800ED01832F692FC0E0D0E023C041E0460FF3
S11318104093F001962F969596959695E82FF0E0D3
S113182024E5929FE00DF11D1124E151FE4F6770F4
S1131830980101C0220F6A95EAF7922F90952281B0
S113184092239283642F2196C830D105C9F0209148
S1131850ED0130E00C2E02C0359527950A94E2F78D
S113186020FFD4CF91E0960F9093F0010E942A0AB2
S11318708091EF016091F0012196C830D10539F7CC
S113188031E0380F3093EF0198EF960F4FEFE41AE1
S1131890F40AEC14FD0409F0B0CF95EF980F90937F
S11318A0EF01BA9467015CE0C50ED11CB1109FCF63
S11318B03093EF0180EF860F8093F001333530F0E1
S11318C01092EF016F3260F01092F001DF91CF912E
S11318D01F910F91FF90EF90DF90CF90BF900895EC
S11318E06093F001F3CFCF93DF93EC01FC0184917B
S11318F0882349F0FE01219684910E94DE0BFE01AB
S113190084918111F7CFDF91CF910895CF92DF9227
S1131910EF92FF92CF93DF936B017C01463009F481
S1131920B1C04C3009F455C0453039F0DF91CF9146
S1131930FF90EF90DF90CF90089597FDDBC1D70122
S1131940C6010A97A109B1098A359105A105B10516
S113195008F4E8C081E09AE0C916D104E104F10476
S11319600CF080E0B701A6014456510961097109E0
S1131970443853406105710508F483E0B701A601BA
S1131980485E53406109710948325342610571054B
S113199008F46EC1B701A6014051574261097109AB
S11319A040395F456140710508F453C1823009F440
S11319B07DC1833009F46BC1813009F487C1C0E370
S11319C0D1E083E265E00E94A20A89918111FACFF5
S11319D0ADCF97FD9BC1D701C6010A97A109B109F3
S11319E08A359105A105B10508F49AC081E09AE011
S11319F0C916D104E104F1040CF080E0B701A6019A
S1131A00445651096109710944385340610571050F
S1131A1008F483E0B701A601485E534061097109E7
S1131A20483253426105710508F484E0B701A60108
S1131A30405157426109710940395F456140710560
S1131A4008F480C0B701A601405A564861407109A4
S1131A50403A5B4B6D40710508F466C0823009F46E
S1131A609BC008F45EC1833009F488C0843009F453
S1131A7077C0C0E3D1E083E20E94DE0B899181113B
S1131A80FBCF54CF97FD2AC1D701C6010A97A109FC
S1131A90B1098A359105A105B10508F43FC081E07B
S1131AA09AE0C916D104E104F1040CF080E0B70116
S1131AB0A60144565109610971094438534061052E
S1131AC0710508F483E0B701A601485E534061093B
S1131AD07109483253426105710508F483C0B701A6
S1131AE0A601405157426109710940395F4561407F
S1131AF0710508F468C0823009F492C0833009F497
S1131B0080C0813009F4E6C0C0E3D1E083E266E03E
S1131B100E94A20A89918111FACF08CF82E0C7CF2F
S1131B2082E06CCF82E01ECFC701B60120EA36E81E
S1131B3041E050E00E949A156B017C0180E3820F22
S1131B400E94DE0BC701B60120E137E240E050E01D
S1131B500E949A156B017C0180E3820F0E94DE0BC8
S1131B60C701B60128EE33E040E050E00E949A1528
S1131B706B017C0180E3820F0E94DE0BC701B6017A
S1131B8024E630E040E050E00E949A156B017C01AD
S1131B9080E3820F0E94DE0BC701B6012AE030E029
S1131BA040E050E00E949A15C62F80E3820F0E9405
S1131BB0DE0B80E38C0FDF91CF91FF90EF90DF90ED
S1131BC0CF900C94DE0BC701B60120E137E240E070
S1131BD050E00E949A156B017C0166E080E3820F5D
S1131BE00E94A20AC701B60128EE33E040E050E0AB
S1131BF00E949A156B017C0166E080E3820F0E94CB
S1131C00A20AC701B60124E630E040E050E00E9499
S1131C109A156B017C0166E080E3820F0E94A20AA0
S1131C20C701B6012AE030E040E050E00E949A1576
S1131C30C62F66E080E3820F0E94A20A66E080E37A
S1131C408C0FDF91CF91FF90EF90DF90CF900C94A9
S1131C50A20AC701B60120E137E240E050E00E9449
S1131C609A156B017C0165E080E3820F0E94A20A51
S1131C70C701B60128EE33E040E050E00E949A1517
S1131C806B017C0165E080E3820F0E94A20AC70118
S1131C90B60124E630E040E050E00E949A156B0162
S1131CA07C0165E080E3820F0E94A20AC701B601AD
S1131CB02AE030E040E050E00E949A15C62F65E02B
S1131CC080E3820F0E94A20A65E0B9CF65E080E359
S1131CD08C0DB7CF66E080E38C0DB3CF66E08DE268
S1131CE00E94A20AC601D7FC27C06C01990FEE0816
S1131CF0FF08CACE65E08DE20E94A20AC601D7FCA5
S1131D0020C06C01990FEE08FF0819CE8DE20E94E5
S1131D10DE0BC601D7FC0BC06C01990FEE08FF085F
S1131D205ACE813009F0A5CE80E38C0D44CF8827AC
S1131D3099278C199D09F0CF882799278C199D091B
S1131D40D4CF882799278C199D09DBCF45E00C94C3
S1131D50860C4CE00C94860C46E00C94860CEF92B6
S1131D60FF920F931F93CF93DF93E82ED62F142F58
S1131D70F22E481710F4E42E182FFD1618F48D2FA8
S1131D80DF2DF82E01112DC01E1580F0CE2D6D2FE4
S1131D908C2F0E942A0ACF5F1C17C8F7CE2D6F2DF7
S1131DA08C2F0E942A0ACF5F1C17C8F7FD1678F003
S1131DB0CD2F6C2F8E2D0E942A0ACF5FFC16C8F7F8
S1131DC06D2F812F0E942A0ADF5FFD16C8F7DF916D
S1131DD0CF911F910F91FF90EF900895DF5FFD1653
S1131DE0B0F31E15D8F3CE2D6D2F8C2F0E942A0A26
S1131DF0CF5F1C17C8F7DF5FFD1698F7E8CFEF92A7
S1131E00FF920F931F93CF93DF930023A1F0E82E4B
S1131E10E00ECFEFC20FDFEFD40F11E0160FFF2457
S1131E20F394F80E00E00E94AF0E8F2D612F4D2F1A
S1131E302C2FEF10EECFDF91CF911F910F91FF90D8
S1131E40EF900895CF93DF9360E080E00E948E0AC4
S1131E50C1EFD1E061E089910E94420A83E0C93E6A
S1131E60D807C1F7DF91CF910895811104C084E2AE
S1131E7060E00C94420A80E260E00C94420A0E9402
S1131E8039040E94590F0E942B0544E060EA76E869
S1131E9081E090E00E942B090E9480140E945B0A5A
S1131EA0789408950E943F0F8091C9010E944308CD
S1131EB0FBCF52985A9AE9E6F0E0808182608083F1
S1131EC0E89A08950F931F93CF93DF931092F9012B
S1131ED01092F8011092000180910001811108C054
S1131EE06BE08FE30E94A407809100018823C1F373
S1131EF0109200012091F8013091F90188EE93E0ED
S1131F00289FE001299FD00D389FD00D11241092F5
S1131F10F9011092F80180910001811108C06BE071
S1131F2084E40E94A407809100018823C1F31092E5
S1131F3000012091F8013091F90144E6429FC0016B
S1131F40439F900D11248C010C0F1D1F1092F90159
S1131F501092F80180910001811108C06BE089E4BE
S1131F600E94A407809100018823C1F3109200010C
S1131F702091F8013091F901C901880F991F220FAE
S1131F80331F220F331F220F331FEC01C20FD31F45
S1131F901092F9011092F80180910001811108C09A
S1131FA06BE08EE40E94A407809100018823C1F3B2
S1131FB08091F8019091F901800F911F2BEF31E08E
S1131FC030937D0120937C018C0F9D1FA0E0B0E035
S1131FD08093020290930302A0930402B09305023B
S1131FE0DF91CF911F910F9108954F925F926F925D
S1131FF07F928F929F92AF92BF92CF92DF92EF9295
S1132000FF92CF93DF938091F101813009F4E4C012
S113201008F1823081F40E94500A6BE083E00E9450
S11320209D0A8CE497E00E94A60B0E94620F0E9416
S1132030500A1092F101DF91CF91FF90EF90DF9061
S1132040CF90BF90AF909F908F907F906F905F9054
S11320504F9008950E946F0560E08BE30E949D0AF3
S1132060E0917C01F0917D01628170E080E090E07C
S11320700E94A60E8AE30E94A00BE0917C01F091DD
S11320807D01618170E080E090E00E94A60E8BEFFC
S113209091E090937D0180937C01C0900602D090E2
S11320A00702E0900802F09009026CE080E00E94D0
S11320B09D0AC114D104E104F10409F400C2D7015A
S11320C0C601880F991FAA1FBB1F880F991FAA1F3B
S11320D0BB1F880F991FAA1FBB1FC80ED91EEA1E5B
S11320E0FB1ECC0CDD1CEE1CFF1CCC0CDD1CEE1C02
S11320F0FF1C20EAC21626E8D20621E0E206F1041B
S113210008F05EC280E30E94DE0BC701B60120E145
S113211037E240E050E00E94781580E3820F0E948D
S1132120DE0B65E187E10E949D0A8EE20E94A00B0E
S11321306CE08AE10E949D0AC701B60120E137E202
S113214040E050E00E9478156B017C0121E0C21A46
S1132150D108E108F10820EAC21626E8D20621E0F7
S1132160E206F10408F0BAC16B017C0129EEC21A3F
S113217023E0D20AE108F10828E2C21623E2D206DB
S1132180E104F10408F43DC26B017C0125E6C21AA6
S1132190D108E108F10824E8C21623E0D206E104DC
S11321A0F10408F439C26B017C012BE0C21AD10896
S11321B0E108F1082AE5C216D104E104F10408F0AB
S11321C090C12AE030E040E050E00E94781580E3BE
S11321D0820F0E94DE0B85C10E94500A10920001FA
S11321E08091000181115BC188EE882E83E0982ED6
S11321F0A12CB12C90E1C92E9EE0D92EE12CF12C1A
S11322002CE3422E512C612C712CD3C06389748928
S113221085899689A70196010E947815CA01B9019A
S11322200E94AC0E8AE30E94A30BC0917C01D09162
S11322307D016B897C898D899E89A70196010E9405
S11322407815683572408105910508F410C16B89D1
S11322507C898D899E89A70196010E947815A30126
S113226092010E947815CA01B9010E94AC0E8AE35A
S11322700E94A30BC0917C01D0917D016B897C8964
S11322808D899E89A70196010E947815A301920168
S11322900E9478156A3071058105910508F4CFC054
S11322A06B897C898D899E89A70196010E94781586
S11322B0A30192010E9478150E94AC0E68E180E0AF
S11322C00E949D0A89E297E00E94CA0BE0917C017A
S11322D0F0917D012789308D418D528DA0E1BEE0C2
S11322E00E94B915A50194010E947815CA01B9018B
S11322F00E94AC0E82E497E00E94A60B60E280E0AC
S11323000E949D0A8FE297E00E94CA0BE0917C0133
S1132310F0917D01238D348D458D568DA0E1BEE075
S11323200E94B915A50194010E947815CA01B9014A
S11323300E94AC0E82E497E00E94A60B68E280E063
S11323400E949D0A83E297E00E94CA0BE0917C01FF
S1132350F0917D01678D70A181A192A1A5019401E5
S11323600E947815CA01B9010E94AC0E68E280E3AC
S11323700E949D0A8EE20E94A00B68E283E30E9401
S11323809D0AE0917C01F0917D01678D70A181A18E
S113239092A1A50194010E9478150E94AC0E88E4D4
S11323A097E00E94A60B0E94220F809100018111E8
S11323B076C068E080E00E949D0A8CE397E00E946A
S11323C0CA0BE0917C01F0917D0167857089818958
S11323D09289A50194010E947815CA01B9010E944D
S11323E0AC0E88E497E00E94A60B60E180E00E94B6
S11323F09D0A85E397E00E94CA0BE0917C01F0916D
S11324007D0183899489A589B689803A9C48A10570
S1132410B10508F0FBCE80E30E94A30BE0917C01A0
S1132420F0917D016389748985899689A701960154
S11324300E94781580E3820F0E94A30BF3CE80E301
S11324400E94A30BE0917C01F0917D016389748962
S113245085899689A70196010E947815A3019201A6
S11324600E94781580E3860F0E94A30B27CF80E398
S11324700E94A30BE0917C01F0917D016389748932
S113248085899689A70196010E947815A301920176
S11324900E94781580E3820F0E94A30BE8CEDF919F
S11324A0CF91FF90EF90DF90CF90BF90AF909F902F
S11324B08F907F906F905F904F900C94500A80E2C1
S11324C097E00E94730C65E187E10E949D0A8EE209
S11324D00E94A00B6CE08AE10E949D0A80E30E94A6
S11324E0DE0B65E18BE20E949D0A82E497E00E9484
S11324F0CA0B61E280E00E949D0A8CE397E00E948F
S1132500CA0BE0917C01F0917D0167857089818916
S1132510928938EEC32E33E0D32EE12CF12CA7019F
S113252096010E947815CA01B9010E94AC0E88E494
S113253097E00E94CA0B69E280E00E949D0A83E250
S113254097E00E94CA0BE0917C01F0917D01678DB8
S113255070A181A192A1A70196010E947815CA01D8
S1132560B9010E94AC0E69E280E30E949D0A8EE2EA
S11325700E94A00B69E283E30E949D0AE0917C0122
S1132580F0917D01678D70A181A192A1A7019601AF
S11325900E9478150E94AC0E88E497E00E94CA0B52
S11325A0DF91CF91FF90EF90DF90CF90BF90AF90ED
S11325B09F908F907F906F905F904F900C94220F1C
S11325C0C701B60120EA36E841E050E00E947815E0
S11325D080E3820F0E94DE0BC701B60120E137E2DF
S11325E040E050E00E947815CA01B9012AE030E0C9
S11325F040E050E00E94781580E3860F0E94DE0BD5
S113260090CD28EE33E040E050E00E94781580E35E
S1132610820F0E94DE0B65CF24E630E040E050E0FC
S11326200E94781580E3820F0E94DE0B5ACF1F921E
S11326300F920FB60F9211248F939F938BEF91E01B
S113264090937D0180937C018091F201882361F055
S113265080911F028F5F80931F029F918F910F9033
S11326600FBE0F901F90189581E08093F201809324
S11326701F0280931E0280ED93E090938900809363
S1132680880090938B0080938A00809181008D60F4
S11326908093810080916F00866080936F009F918A
S11326A08F910F900FBE0F901F9018951F920F924D
S11326B00FB60F9211242F933F934F935F936F9311
S11326C07F938F939F93AF93BF93EF93FF938BEF7E
S11326D091E090937D0180937C0180911E02209172
S11326E00202309103024091040250910502A0912C
S11326F01F02E0911E020A2E000CBB0B853008F469
S11327003FC00E94C4152E2F30E040E050E00E94EC
S113271078152093060230930702409308025093E1
S113272009028091060290910702A0910802B091DB
S11327300902892B8A2B8B2BB1F010921F0281E0A6
S113274080931E02FF91EF91BF91AF919F918F9162
S11327507F916F915F914F913F912F910F900FBE99
S11327600F901F90189580918100827F8093810043
S113277080916F008D7F80936F001092F201E2CF01
S11327800E94C4152E2F30E040E050E00E947815DE
S113279020930602309307024093080250930902E3
S11327A080911E028F5F80931E02CCCF1F920F92E6
S11327B00FB60F921124CF92DF92EF92FF922F93D4
S11327C03F934F935F936F937F938F939F93AF93B5
S11327D0BF93EF93FF938BEF91E090937D018093F0
S11327E07C01609106027091070280910802909129
S11327F0090228EE33E040E050E00E9478156901B8
S11328007A0180910A0290910B02A0910C02B0917E
S11328100D02820F931FA41FB51F80930A02909389
S11328200B02A0930C02B0930D0280911A029091B6
S11328301B02A0911C02B0911D02820F931FA41FC2
S1132840B51F80931A0290931B02A0931C02B093AD
S11328501D0280910E0290910F02A0911002B0917E
S113286011020196A11DB11D80930E0290930F02D7
S1132870A0931002B093110260910A0270910B02AE
S113288080910C0290910D0220910E0230910F0262
S113289040911002509111020E9478152093120267
S11328A03093130240931402509315028091160240
S11328B090911702A0911802B09119028C159D05F0
S11328C0AE05BF0540F4C0921602D0921702E09202
S11328D01802F0921902FF91EF91BF91AF919F916D
S11328E08F917F916F915F914F913F912F91FF90C5
S11328F0EF90DF90CF900F900FBE0F901F90189520
S1132900CF93DF931F92CDB7DEB784B18C6284B9C5
S113291024988CB580658CBD8DB589838EB58983EB
S11329200F90DF91CF9108958CB58F7A8CBD089567
S11329308EBD0DB407FEFDCF08951F920F920FB602
S11329400F9211248F93EF93FF93E091F301F0E042
S1132950E05AFD4F8081811110C08CB58F778CBDFA
S113296081E0809302011092F301FF91EF918F9126
S11329700F900FBE0F901F901895E091F30181E026
S11329808E0F8093F301F0E0E05AFD4F80818EBDFD
S1132990FF91EF918F910F900FBE0F901F9018959C
S11329A085E090E09093C5008093C400E1ECF0E0F2
S11329B0808188698083E2ECF0E080818660808396
S11329C01092F7011092F6011092F5011092F401A1
S11329D00895DC012C912223D9F030E0E091F60136
S11329E0EF5FEF739091F701E917E1F3E093F601DC
S11329F0F0E0E052FD4F20839091C10090629093EB
S1132A00C1003F5FFD01E30FF11D20812111E6CFDD
S1132A100895CF93DF93EC0188818823E1F030E0BF
S1132A20DE012091F5019091F4012917D1F39091E1
S1132A30F5019F5F9F739093F501E091F501F0E03C
S1132A40E056FD4F90819C933F5FDE01A30FB11DC3
S1132A509C919111E6CFDF91CF9108951F920F922F
S1132A600FB60F9211248F939F93EF93FF9390913E
S1132A70F7018091F6019817A9F0E091F701EF5F53
S1132A80EF73E093F701F0E0E052FD4F8081809313
S1132A90C600FF91EF919F918F910F900FBE0F9001
S1132AA01F9018958091C1008F7D8093C100F1CF54
S1132AB01F920F920FB60F9211248F939F93EF934F
S1132AC0FF938091C600E091F401EF5FEF73E09310
S1132AD0F4019091F501F0E0E056FD4F8083FF9101
S1132AE0EF919F918F910F900FBE0F901F901895AB
S1132AF0A1E21A2EAA1BBB1BFD010DC0AA1FBB1FFE
S1132B00EE1FFF1FA217B307E407F50720F0A21B6F
S1132B10B30BE40BF50B661F771F881F991F1A94DC
S1132B2069F760957095809590959B01AC01BD0106
S1132B30CF010895052E97FB1EF400940E94B11551
S1132B4057FD07D00E94781507FC03D04EF40C946F
S1132B50B11550954095309521953F4F4F4F5F4F9C
S1132B60089590958095709561957F4F8F4F9F4FF5
S1132B7008950E94CC15A59F900DB49F900DA49F1D
S1132B80800D911D11240895B7FF0C94B9150E946E
S1132B90B915821B930B0895A29FB001B39FC00186
S1132BA0A39F700D811D1124911DB29F700D811D75
S10D2BB01124911D0895F894FFCF3D
S1132BBA0101012D012901250121011D011801131A
S1132BCA010F010B0107010301FF004901450141FE
S1132BDA013D01390135013101736C6565700023CA
S1072BEA232300009D
S9030000FC
