S01100004765656B53706F72742E737265637F
S11300000C94AF030C942D120C94CC030C94CC03DD
S11300100C94CC030C94CC030C94CC030C94CC0320
S11300200C94CC030C94CC030C94CC030C94661267
S11300300C94DB120C94CC030C943E040C94CC036F
S11300400C94CC030C9498130C9433140C9409144E
S11300500C94CC030C94CC030C94CC030C94CC03E0
S11300600C94E1080C94CC030C94CC030C94CC03B6
S11300700C94CC030C94CC030C94CC030C94CC03C0
S11300800C94CC030C94CC030C94CC030C94CC03B0
S11300900C94CC030C94CC030C94CC030C94CC03A0
S11300A00C94CC030C94CC030C94CC030C94CC0390
S11300B00C94CC034F6666004F6E00426C756574F9
S11300C06F6F74683A20002C200054696D652073AA
S11300D0657474696E67733A005765656B6461791A
S11300E0202D2000446174653A2030302E30302EAB
S11300F030300054696D653A2030303A3030004475
S11301006563004E6F76004F637400536570004161
S11301107567004A756C65004A756E65004D6179B6
S113012000417072004D617200466562004A616E62
S11301300053617400467269005468750057656421
S113014000547565004D6F6E0053756E00576865F9
S1130150656C20286D6D293A2030303030005365AD
S11301607474696E6773003230313800525620451A
S11301706C656374726F6E69637300446576656C55
S11301806F7065723A004765656B53706F727400E7
S11301905765656B646179202D2000446174653A6C
S11301A02030302E30302E30300054696D653A20C6
S11301B030303A3030000000008080808080800041
S11301C00000000001030303030303010000000017
S11301D0000000000000000000000000000000C05B
S11301E0C000000000000000028686868686860223
S11301F00000000081C3C3C3C3C3C381000000FC6B
S11302007A0606060606067AFC00007EBCC0C0C05C
S1130210C0C0C0BC7E0000000000000000000078E8
S1130220FC000000000000000000003C7E00000014
S1130230028686868686867AFC00007EBDC3C3C39A
S1130240C3C3C38100000000028686868686867A40
S1130250FC00000081C3C3C3C3C3C3BD7E0000FC54
S11302607880808080808078FC0000000103030394
S11302700303033D7E0000FC7A868686868686021A
S11302800000000081C3C3C3C3C3C3BD7E0000FC20
S11302907A868686868686020000007EBDC3C3C336
S11302A0C3C3C3BD7E000000020606060606067A26
S11302B0FC000000000000000000003C7E0000FC88
S11302C07A8686868686867AFC00007EBDC3C3C392
S11302D0C3C3C3BD7E0000FC7A8686868686867A82
S11302E0FC00000081C3C3C3C3C3C3BD7E000000C0
S11302F000007C7C7C7C00000000000000003E3E8E
S11303003E3E000000000000000000000000002F3E
S1130310000000000700070000147F147F1400246D
S11303202A7F2A120023130864620036495522509A
S113033000000503000000001C22410000004122CF
S11303401C000014083E08140008083E08080000B9
S113035000A06000000808080808000060600000B1
S1130360002010080402003E5149453E0000427F2F
S11303704000004261514946002141454B3100187B
S113038014127F10002745454539003C4A4949303D
S113039000017109050300364949493600064949F7
S11303A0291E000036360000000056360000000802
S11303B014224100001414141414000041221408DF
S11303C000020151090600324959513E007C1211C4
S11303D0127C007F49494936003E41414122007F59
S11303E04141221C007F49494941007F0909090113
S11303F0003E4149497A007F0808087F0000417F98
S11304004100002040413F01007F08142241007F49
S113041040404040007F020C027F007F0408107FB0
S1130420003E4141413E007F09090906003E415119
S1130430215E007F091929460046494949310001D6
S1130440017F0101003F4040403F001F2040201F2A
S1130450003F4038403F00631408146300070870ED
S1130460080700615149454300007F414100AA55F6
S1130470AA55AA55000041417F000004020102046C
S11304800040404040400000030500000020545458
S11304905478007F484444380038444444200038A9
S11304A04444487F00385454541800087E0901021B
S11304B00018A4A4A47C007F080404780000447DF0
S11304C04000004080847D00007F1028440000002C
S11304D0417F4000007C04180478007C0804047800
S11304E000384444443800FC2424241800182424EC
S11304F018FC007C080404080048545454200004E8
S11305003F444020003C4040207C001C2040201CF4
S1130510003C4030403C004428102844001CA0A06B
S1130520A07C004464544C440000107C8200000011
S113053000FF00000000827C10000000060909068C
S1130540000000000000005F000000070007001426
S11305507F147F14242A7F2A1223130864623649E5
S11305605522500005030000001C224100004122D6
S11305701C0014083E081408083E08080050300007
S11305800008080808080060600000201008040241
S11305903E5149453E00427F400042615149462157
S11305A041454B311814127F1027454545393C4AC3
S11305B04949300171090503364949493606494913
S11305C0291E003636000000563600000814224169
S11305D000141414141400412214080201510906D1
S11305E0324979413E7E1111117E7F494949363E97
S11305F0414141227F4141221C7F494949417F09B0
S11306000909013E4149497A7F0808087F00417F72
S113061041002040413F017F081422417F40404077
S1130620407F020C027F7F0408107F3E4141413E1F
S11306307F090909063E4151215E7F091929464671
S11306404949493101017F01013F4040403F1F209A
S113065040201F3F4038403F63140814630708706C
S113066008076151494543007F41410002040810D5
S1130670200041417F000402010204404040404008
S1130680000102040020545454787F48444438380C
S113069044444420384444487F3854545418087E11
S11306A00901020C5252523E7F0804047800447D32
S11306B040002040443D007F1028440000417F401A
S11306C0007C041804787C080404783844444438D2
S11306D07C14141408081414187C7C0804040848B6
S11306E054545420043F4440203C4040207C1C206F
S11306F040201C3C4030403C44281028440C5050BE
S1130700503C4464544C44000836410000007F00CF
S11307100000413608001008081008784641467861
S11307203030004473743A20004176653A20004D1D
S113073061783A200054696D653A20004F646F3A3D
S11307402000206B6D2F6800206B6D005768656575
S11307506C20286D6D293A2030303030000011248F
S11307601FBECFEFD8E0DEBFCDBF11E0A0E0B1E007
S1130770E8E8F9E202C005900D92A033B107D9F779
S113078022E0A0E3B1E001C01D92A63DB207E1F76B
S11307900E94780E0C94C2140C940000CF938091A4
S11307A07201882309F445C08130E1F50E9485096E
S11307B01092D5018091D501811131C0C1E00EC0E4
S11307C080913001882381F188EB90E00E94FC0A3B
S11307D00E94540E8091D501811121C064E080E013
S11307E00E94CF098BEB90E00E94FC0A809171017A
S11307F08111E6CF80913001882339F08091C100C6
S113080087768093C1001092300184EB90E00E94BF
S1130810FC0A0E94540E8091D5018823F9F2CF91ED
S11308200C948509CF9108950E94CB13C093300195
S1130830CBCF60E080E00E94CF0981E391E00E9489
S1130840EC0ACF910C94540E87B1837F87B98AB197
S11308508F768AB988B18C6088B98BB180698BB97D
S113086084B5826084BD85B5846085BDEEE6F0E024
S11308708081826080838BE387BD08951F920F92ED
S11308800FB60F9211242F933F934F935F936F935F
S11308907F938F939F93AF93BF93EF93FF93809135
S11308A08A01329938C090917601992309F458C08D
S11308B033992EC0909175019923D9F14C9925C093
S11308C090917401992351F14F991CC08091730147
S11308D0811107C081E0809373019BB180E4892773
S11308E08BB9FF91EF91BF91AF919F918F917F91C0
S11308F06F915F914F913F912F910F900FBE0F9089
S11309001F90189510927301ECCF10927401DCCFF4
S113091010927501D3CF10927601CACF91E09093D3
S11309207401833099F110F0843071F60E948A07C3
S1130930CBCF91E090937501209100012223E9F03F
S1130940823009F453C0D8F1833079F1843009F04E
S1130950B5CF20910101211110C090930101AECFB8
S113096091E0909376012FEF280F233048F08823ED
S113097009F49ECF90938A019BCF909300019ECF60
S113098090918A019F5F90938A0192CF8091720126
S1130990882311F1813009F097CF90917101982744
S11309A0909371018093D5018FCF90917201911131
S11309B027C0909172019F5F909372017FCF813025
S11309C009F07CCF90917701911117C09091770134
S11309D09F5F9093770172CF80917101882309F40E
S11309E073CF81E391E00E94E4136ECF9091CC0128
S11309F0923048F01092CC0161CF109277015ECF13
S1130A00109272015BCF9091CC019F5F9093CC01C7
S1130A1055CF80ED809300001092010010920200E7
S1130A20E1E8F1E0818180930300828180930400F6
S1130A30838180930500848180930600858180935F
S1130A40070086818093080069E080E090E00C94C0
S1130A509708EF92FF921F93CF93DF937C01142F9B
S1130A60C0E0D0E080ED8883698362E080E090E0BC
S1130A700E94970881ED8883612F80E090E00E94B6
S1130A809708612FC701DF91CF911F91FF90EF90DD
S1130A900C94C3088AE791E09093790180937801DC
S1130AA048E060E00E942905E0917801F091790125
S1130AB08081982F92959F708F702AE0929F800D6D
S1130AC0112480838181982F92959F708F702AE0E2
S1130AD0929F800D112481838281982F92959F701B
S1130AE08F702AE0929F800D112482838381982F36
S1130AF092959F708F702AE0929F800D11248383BA
S1130B008481982F92959F708F702AE0929F800D18
S1130B10112484838581982F92959F708F702AE089
S1130B20929F800D112485838681982F92959F70C2
S1130B308F702AE0929F800D112486830895CF93AD
S1130B401092D4011092D3011092000180910001FF
S1130B50811112C08091D3019091D401039720F0A8
S1130B601092D4011092D30165E185E20E947F07BF
S1130B7080910001882371F3109200018091D301C8
S1130B809091D401C82FC295C07F1092D4011092C5
S1130B90D30180910001811108C065E18BE20E94BC
S1130BA07F07809100018823C1F310920001809196
S1130BB0D3019091D4018C2B809383011092D401A2
S1130BC01092D30180910001811112C08091D30150
S1130BD09091D401069720F01092D4011092D30181
S1130BE065E187E30E947F0780910001882371F308
S1130BF0109200018091D3019091D401C82FC29525
S1130C00C07F1092D4011092D30180910001811110
S1130C1008C065E18DE30E947F078091000188236D
S1130C20C1F3109200018091D3019091D4018C2BD7
S1130C30809382011092D4011092D301809100011B
S1130C40811112C08091D3019091D401049720F0B6
S1130C501092D4011092D3016EE185E20E947F07C5
S1130C6080910001882371F3109200018091D301D7
S1130C709091D401C82FC295C07F1092D4011092D4
S1130C80D30180910001811108C06EE18BE20E94C2
S1130C907F07809100018823C1F3109200018091A5
S1130CA0D3019091D4018C2B809385011092D401AF
S1130CB01092D30180910001811112C08091D3015F
S1130CC09091D401029720F01092D4011092D30194
S1130CD06EE187E30E947F0780910001882371F30E
S1130CE0109200018091D3019091D401C82FC29534
S1130CF0C07F1092D4011092D30180910001811120
S1130D0008C06EE18DE30E947F0780910001882373
S1130D10C1F3109200018091D3019091D4018C2BE6
S1130D20809386011092D4011092D3018091000126
S1130D30811108C06EE189E40E947F07809100015F
S1130D408823C1F3109200018091D3019091D401C2
S1130D50C82FC295C07F1092D4011092D301809104
S1130D600001811108C06EE18FE40E947F07809129
S1130D7000018823C1F3109200018091D301909166
S1130D80D4018C2B809387011092D4011092D3014B
S1130D9080910001811120C08091D3019091D401F0
S1130DA0079720F01092D4011092D30167E28CE3EC
S1130DB00E94CF09E091D301F091D401EE0FFF1FFF
S1130DC0E35EFE4F808191810E94FC0A0E94540ED2
S1130DD080910001882301F38091D3019091D40183
S1130DE08F5F80938401CF910C9409050F938091B8
S1130DF07701882361F1813041F50E94850960E023
S1130E0080E00E94CF098AEC90E00E94FC0A65E130
S1130E1080E00E94CF0983EF90E00E94FC0A6EE11B
S1130E2080E00E94CF0984EE90E00E94FC0A67E211
S1130E3080E00E94CF0989ED90E00E94FC0A0E94A4
S1130E409F050E948509109277010F9108950E94D1
S1130E504A0504E02FE243E567E080E00E94310E9A
S1130E606CE08CE00E94CF09E0917801F091790167
S1130E70628170E080E090E00E94DB0D8AE30E94D2
S1130E80100BE0917801F0917901618170E080E0CC
S1130E9090E00E94DB0D6EE186E00E94CF09E091B4
S1130EA07801F0917901E381F0E0EE0FFF1FE55E38
S1130EB0FE4F808191810E94FC0A87EC90E00E94A1
S1130EC0FC0AE0917801F0917901E581F0E0EE0F00
S1130ED0FF1FED5FFE4F808191810E94FC0A80E23A
S1130EE00E94D50AE0917801F0917901648170E063
S1130EF080E090E00E94D80D0F910C94540E0E9453
S1130F00CF098091D3019091D401805D0E94D20ACF
S1130F100C94540E8091D3019091D401893038F40B
S1130F208F5F90E09093D4018093D301089580E083
S1130F3090E09093D4018093D3010895CF93C0910E
S1130F400101CC23D1F1C130B1F50E94850960E0E3
S1130F5083E10E94CF098EE591E00E94FC0A6BE0D8
S1130F6083E00E94CF098DE491E00E94D80A65E1F4
S1130F7080E00E94CF098AEA91E00E94FC0A6EE1B7
S1130F8080E00E94CF098BE991E00E94FC0A67E2AD
S1130F9080E00E94CF0980E991E00E94FC0A0E944F
S1130FA0880E0E949F050E9485090E94540E10928B
S1130FB00101C0938A01CF91089562E084E10E9407
S1130FC0CF0986E891E00E94FC0A6CE082E00E946E
S1130FD0CF098BE791E00E94FC0A65E180E00E9462
S1130FE0CF098CE691E00E94FC0A68E286E30E9445
S1130FF0CF0987E691E00E94FC0ACF910C94540E2D
S1131000CF93C82F823009F44CC0B0F4882359F12F
S1131010813039F580918901813059F081E08093E4
S1131020890180918801813021F0C09388010E9458
S11310308509CF910C94F606833011F1843089F43C
S113104080918901843051F0C09389018091880195
S1131050843021F0C09388010E948509CF910C94BB
S11310609E07CF91089580918901882331F01092D1
S1131070890180918801811125C00E949E07CACFF1
S113108080918901833051F0C09389018091880156
S1131090833021F0C09388010E948509CF910C947C
S11310A0CE0380918901823051F0C09389018091EF
S11310B08801823021F0C09388010E948509CF9174
S11310C00C940D0F109288010E948509D6CF0F93BE
S11310D01F93CF938B019C01C42F87B18F7C87B959
S11310E088B1806388B960E472E48FE090E0A9017C
S11310F098010E946714CA01B901605171098109FC
S113110091094C2F50E09A01220F331F032E000C3B
S1131110440B550B0E9467142093B8001092B90039
S113112084E08093BC00CF911F910F910895CF93D9
S1131130DF93EC019091BC0090FDFCCF60938C0197
S1131140888180939D01888180FD15C0623098F06C
S1131150FE0131966250262F30E02E5F3F4F2C0F58
S11311603D1FDF01AC1BBD0B9191A356BE4F9C9359
S1131170E217F307B1F71092AD0185EA8093BC0042
S1131180DF91CF910895DC019091BC0090FDFCCFDC
S11311908091AD0180FF13C0662389F091E0292F6F
S11311A030E0F901E357FE4F40812A0F3B1FF9015C
S11311B0319740839F5F691790F78091AD018170EB
S11311C008951F920F920FB60F9211248F939F933D
S11311D0EF93FF938091B900887F803309F45DC059
S11311E038F18834A1F1A0F0883561F1883F09F421
S11311F058C0803579F5E0918B0181E08E0F8093A2
S11312008B01F0E09091BB00E357FE4F908307C041
S1131210883309F442C08034E9F480918B019091C1
S11312208C01891708F041C085EC8093BC0012C082
S1131230803109F440C0B8F481113BC085E9809342
S1131240BC0008C08091AD0181608093AD0184E948
S11312508093BC00FF91EF919F918F910F900FBEEF
S11312600F901F9018958032C1F0883211F08831A8
S113127089F7E0918B0180918C01E81718F781E0E0
S11312808E0F80938B01F0E0E356FE4F80818093B4
S1131290BB0085E88093BC00DDCF85EA8093BC0069
S11312A0D9CF84E08093BC00D5CF85E88093BC007F
S11312B0D1CF883079F610928B01E0E0DCCF962F05
S11312C0969596959695E82FF0E084E5989FE00D25
S11312D0F11D1124E055FE4F677081E090E001C0DC
S11312E0880F6A95EAF79281892B828308956111A8
S11312F006C028982A980E9493132A9A0895289A37
S11313002A980E9493132A9A0895E2EBF1E011922D
S113131083E0EA3AF807D9F70895CF93DF9384B1CD
S1131320836084B9569A299A2A9A299883EC99E079
S11313300197F1F700C00000299A60E081E20E9461
S1131340770960E080E90E94770960E087E00E9405
S1131350770960E081E10E94770960E080E20E9401
S1131360770960E08CE00E947709C8EFD1E061E082
S113137080E00E9477092197D1F7DF91CF910895FA
S1131380CF93C62F2A9860E080680E94770960E0B6
S11313908C2F80640E9477092A9ACF910895E0EBFC
S11313A0F1E0808361830895DF92EF92FF920F93BF
S11313B01F93CF93DF93282F653009F481C06630E3
S11313C009F068C06091B1018091B001022E000C57
S11313D0330B20523109E901CC0FDD1FC20FD31F9B
S11313E0CC0FDD1FCA5FDC4F36E0D32E01E010E0E6
S11313F0FE0124912093AF01E12CF12C26C041E0A1
S1131400460F4093B101962F969596959695E82FA1
S1131410F0E024E5929FE00DF11D1124E055FE4F0C
S11314206770980101C0220F6A95EAF7922F909590
S1131430228192239283642F9FEFE91AF90AE8E04C
S1131440EE16F104E1F02091AF0130E00E2C02C061
S1131450359527950A94E2F720FFD1CF91E0960FB6
S11314609093B1010E945F098091B0016091B10134
S11314709FEFE91AF90AE8E0EE16F10421F78F5F0D
S11314808093B00168506093B101DA942196D11031
S1131490AFCF02C08091B001803550F01092B001FE
S11314A08091B101885F803308F472C01092B10159
S11314B0DF91CF911F910F91FF90EF90DF900895EE
S11314C06091B1018091B001022E000C330B2052C7
S11314D03109E901CC0FDD1FCC0FDD1FC20FD31F73
S11314E0C05CDA4F55E0D52E01E010E0FE012491F6
S11314F02093AF01E12CF12C26C041E0460F40932C
S1131500B101962F969596959695E82FF0E024E5EF
S1131510929FE00DF11D1124E055FE4F6770980174
S113152001C0220F6A95EAF7922F909522819223A7
S11315309283642F9FEFE91AF90AE8E0EE16F104AA
S1131540E1F02091AF0130E00E2C02C035952795D3
S11315500A94E2F720FFD1CF91E0960F9093B10166
S11315600E945F098091B0016091B1019FEFE91A77
S1131570F90AE8E0EE16F10421F78F5F8093B001D9
S113158068506093B101DA942196D110AFCF84CF23
S11315908093B101DF91CF911F910F91FF90EF9054
S11315A0DF90089565E00C94D40966E00C94D409A6
S11315B0CF93DF93EC01FC018491882351F0FE0169
S11315C02196849165E00E94D409FE0184918111E1
S11315D0F6CFDF91CF910895CF93DF93EC0188810B
S11315E0882339F0219666E00E94D40989918111FB
S11315F0FACFDF91CF910895CF93DF93EC01FC01F3
S11316008491882351F0FE012196849166E00E9422
S1131610D409FE0184918111F6CFDF91CF91089511
S1131620BF92CF92DF92EF92FF920F931F93CF93CB
S1131630DF936091B1019091B00148E1840290017F
S11316401124F901E657F2406F0182E0B82E01E05F
S113165010E076018CE0E81AF108392F962FF70193
S113166024912093AE01832F692FC0E0D0E023C0E2
S113167041E0460F4093B101962F96959695969525
S1131680E82FF0E024E5929FE00DF11D1124E055D0
S1131690FE4F6770980101C0220F6A95EAF7922FF6
S11316A09095228192239283642F2196C830D1058C
S11316B0C9F02091AE0130E00C2E02C0359527957B
S11316C00A94E2F720FFD4CF91E0960F9093B101F2
S11316D00E945F098091B0016091B1012196C830E8
S11316E0D10539F731E0380F3093B00198EF960FF8
S11316F04FEFE41AF40AEC14FD0409F0B0CF95EFAF
S1131700980F9093B001BA9467015CE0C50ED11CA8
S1131710B1109FCF3093B00180EF860F8093B10159
S1131720333530F01092B0016F3260F01092B10195
S1131730DF91CF911F910F91FF90EF90DF90CF90A9
S1131740BF9008956093B101F3CFCF93DF93EC0181
S1131750FC018491882349F0FE01219684910E9422
S1131760100BFE0184918111F7CFDF91CF91089581
S1131770CF92DF92EF92FF92CF93DF936B017C01C4
S1131780463009F4B1C04C3009F455C0453039F045
S1131790DF91CF91FF90EF90DF90CF90089597FD68
S11317A0DBC1D701C6010A97A109B1098A359105A0
S11317B0A105B10508F4E8C081E09AE0C916D10496
S11317C0E104F1040CF080E0B701A601445651098C
S11317D061097109443853406105710508F483E0D7
S11317E0B701A601485E534061097109483253426A
S11317F06105710508F46EC1B701A6014051574255
S11318006109710940395F456140710508F453C1AC
S1131810823009F47DC1833009F46BC1813009F44D
S113182087C1CCE2D1E083E265E00E94D4098991CA
S11318308111FACFADCF97FD9BC1D701C6010A979D
S1131840A109B1098A359105A105B10508F49AC029
S113185081E09AE0C916D104E104F1040CF080E0BF
S1131860B701A6014456510961097109443853402E
S11318706105710508F483E0B701A601485E534091
S113188061097109483253426105710508F484E025
S1131890B701A601405157426109710940395F45BA
S11318A06140710508F480C0B701A601405A56484A
S11318B061407109403A5B4B6D40710508F466C0A4
S11318C0823009F49BC008F45EC1833009F488C0F7
S11318D0843009F477C0CCE2D1E083E20E94100B9B
S11318E089918111FBCF54CF97FD2AC1D701C6013D
S11318F00A97A109B1098A359105A105B10508F432
S11319003FC081E09AE0C916D104E104F1040CF06F
S113191080E0B701A60144565109610971094438B0
S113192053406105710508F483E0B701A601485EE0
S1131930534061097109483253426105710508F445
S113194083C0B701A601405157426109710940396A
S11319505F456140710508F468C0823009F492C0A3
S1131960833009F480C0813009F4E6C0CCE2D1E0D0
S113197083E266E00E94D40989918111FACF08CFED
S113198082E0C7CF82E06CCF82E01ECFC701B601F0
S113199020EA36E841E050E00E9489146B017C01A2
S11319A080E3820F0E94100BC701B60120E137E2E9
S11319B040E050E00E9489146B017C0180E3820FB7
S11319C00E94100BC701B60128EE33E040E050E05E
S11319D00E9489146B017C0180E3820F0E94100B2A
S11319E0C701B60124E630E040E050E00E948914CB
S11319F06B017C0180E3820F0E94100BC701B601CA
S1131A002AE030E040E050E00E948914C62F80E3D1
S1131A10820F0E94100B80E38C0FDF91CF91FF9017
S1131A20EF90DF90CF900C94100BC701B60120E12A
S1131A3037E240E050E00E9489146B017C0166E0CB
S1131A4080E3820F0E94D409C701B60128EE33E077
S1131A5040E050E00E9489146B017C0166E080E361
S1131A60820F0E94D409C701B60124E630E040E0A9
S1131A7050E00E9489146B017C0166E080E3820FD0
S1131A800E94D409C701B6012AE030E040E050E0EA
S1131A900E948914C62F66E080E3820F0E94D40955
S1131AA066E080E38C0FDF91CF91FF90EF90DF90A1
S1131AB0CF900C94D409C701B60120E137E240E08D
S1131AC050E00E9489146B017C0165E080E3820F81
S1131AD00E94D409C701B60128EE33E040E050E08B
S1131AE00E9489146B017C0165E080E3820F0E94EF
S1131AF0D409C701B60124E630E040E050E00E947A
S1131B0089146B017C0165E080E3820F0E94D40993
S1131B10C701B6012AE030E040E050E00E94891499
S1131B20C62F65E080E3820F0E94D40965E0B9CF37
S1131B3065E080E38C0DB7CF66E080E38C0DB3CF16
S1131B4066E08DE20E94D409C601D7FC27C06C016F
S1131B50990FEE08FF08CACE65E08DE20E94D40911
S1131B60C601D7FC20C06C01990FEE08FF0819CEFE
S1131B708DE20E94100BC601D7FC0BC06C01990FBB
S1131B80EE08FF085ACE813009F0A5CE80E38C0D13
S1131B9044CF882799278C199D09F0CF8827992746
S1131BA08C199D09D4CF882799278C199D09DBCFDF
S1131BB045E00C94B80B4CE00C94B80B46E00C9444
S1131BC0B80BEF92FF920F931F93CF93DF93E82EFE
S1131BD0D62F142FF22E481710F4E42E182FFD16CA
S1131BE018F48D2FDF2DF82E01112DC01E1580F055
S1131BF0CE2D6D2F8C2F0E945F09CF5F1C17C8F765
S1131C00CE2D6F2D8C2F0E945F09CF5F1C17C8F754
S1131C10FD1678F0CD2F6C2F8E2D0E945F09CF5FBB
S1131C20FC16C8F76D2F812F0E945F09DF5FFD1638
S1131C30C8F7DF91CF911F910F91FF90EF90089516
S1131C40DF5FFD16B0F31E15D8F3CE2D6D2F8C2F4C
S1131C500E945F09CF5F1C17C8F7DF5FFD1698F776
S1131C60E8CFEF92FF920F931F93CF93DF9300235C
S1131C70A1F0E82EE00ECFEFC20FDFEFD40F11E09A
S1131C80160FFF24F394F80E00E00E94E10D8F2D4F
S1131C90612F4D2F2C2FEF10EECFDF91CF911F919D
S1131CA00F91FF90EF900895CF93DF9360E080E071
S1131CB00E94C009C2EBD1E061E089910E947709DA
S1131CC083E0CA3AD807C1F7DF91CF9108950E9403
S1131CD024040E947F0E40E060EA76E881E090E010
S1131CE00E9467080E947F130E948D0978940895CA
S1131CF00E94670E80918A010E940008FBCF5298CF
S1131D005A9AE9E6F0E0808182608083E89A089537
S1131D100F931F93CF93DF931092D4011092D301AA
S1131D201092000180910001811108C06BE08FE3E3
S1131D300E947F07809100018823C1F31092000163
S1131D402091D3013091D40188EE93E0289FE001E3
S1131D50299FD00D389FD00D11241092D4011092D8
S1131D60D30180910001811108C06BE084E40E94DA
S1131D707F07809100018823C1F3109200018091B4
S1131D80D3019091D40124E6289F8001299F100D4E
S1131D9011240C0F1D1F1092D4011092D3018091B5
S1131DA00001811108C06BE089E40E947F078091E3
S1131DB000018823C1F3109200018091D301909116
S1131DC0D401EC01CC0FDD1F880F991F880F991FD8
S1131DD0880F991FC80FD91F1092D4011092D301F4
S1131DE080910001811108C06BE08EE40E947F079E
S1131DF0809100018823C1F38091D3019091D40193
S1131E00080F191FC00FD11FD0930301C093020103
S1131E10DF91CF911F910F9108954F925F926F922E
S1131E207F928F929F92AF92BF92CF92DF92EF9266
S1131E30FF928091CC01813009F4DCC0F8F082304B
S1131E4081F40E9485096BE083E00E94CF098CE451
S1131E5097E00E94D80A0E94880E0E948509109279
S1131E60CC01FF90EF90DF90CF90BF90AF909F9008
S1131E708F907F906F905F904F9008950E944A05D5
S1131E8060E08BE30E94CF09E0917801F091790141
S1131E90628170E080E090E00E94D80D8AE30E94A5
S1131EA0D20AE0917801F0917901618170E080E0DB
S1131EB090E00E94D80DC090C801D090C901E09074
S1131EC0CA01F090CB016CE080E00E94CF09C114FC
S1131ED0D104E104F10409F40AC2D701C601880F50
S1131EE0991FAA1FBB1F880F991FAA1FBB1F880F0A
S1131EF0991FAA1FBB1FC80ED91EEA1EFB1ECC0CBD
S1131F00DD1CEE1CFF1CCC0CDD1CEE1CFF1C20EAAF
S1131F10C21626E8D20621E0E206F10408F066C201
S1131F2080E30E94100BC701B60120E137E240E0D4
S1131F3050E00E94671480E3820F0E94100B65E159
S1131F4087E10E94CF098EE20E94D20A6CE08AE106
S1131F500E94CF09C701B60120E137E240E050E01A
S1131F600E9467146B017C0121E0C21AD108E108C8
S1131F70F10820EAC21626E8D20621E0E206F104BE
S1131F8008F0C4C16B017C0129EEC21A23E0D20A15
S1131F90E108F10828E2C21623E2D206E104F104C2
S1131FA008F445C26B017C0125E6C21AD108E10898
S1131FB0F10824E8C21623E0D206E104F10408F48F
S1131FC041C26B017C012BE0C21AD108E108F1087F
S1131FD02AE5C216D104E104F10408F09AC12AE00A
S1131FE030E040E050E00E94671480E3820F0E94DA
S1131FF0100B8FC10E94850910920001809100018D
S1132000811167C188EE882E83E0982EA12CB12C13
S113201090E1C92E9EE0D92EE12CF12C2CE3422E26
S1132020512C612C712CDFC06091BE017091BF01F5
S11320308091C0019091C101A70196010E9467148B
S1132040CA01B9010E94DE0D8AE30E94D50A60919B
S1132050BE017091BF018091C0019091C101A7019F
S113206096010E946714683572408105910508F451
S113207018C16091BE017091BF018091C00190911F
S1132080C101A70196010E946714A30192010E9455
S11320906714CA01B9010E94DE0D8AE30E94D50AC1
S11320A06091BE017091BF018091C0019091C10106
S11320B0A70196010E946714A30192010E9467146C
S11320C06A3071058105910508F4D3C06091BE01A1
S11320D07091BF018091C0019091C101A701960147
S11320E00E946714A30192010E9467140E94DE0DEE
S11320F068E180E00E94CF0989E297E00E94FC0A2F
S11321002091BA013091BB014091BC015091BD01B5
S1132110A0E1BEE00E94A814A50194010E946714E6
S1132120CA01B9010E94DE0D82E497E00E94D80A38
S113213060E280E00E94CF098FE297E00E94FC0AEF
S11321402091B6013091B7014091B8015091B90185
S1132150A0E1BEE00E94A814A50194010E946714A6
S1132160CA01B9010E94DE0D82E497E00E94D80AF8
S113217068E280E00E94CF0983E297E00E94FC0AB3
S11321806091B2017091B3018091B4019091B50155
S1132190A50194010E946714CA01B9010E94DE0DD1
S11321A068E280E30E94CF098EE20E94D20A68E2CC
S11321B083E30E94CF096091B2017091B3018091D1
S11321C0B4019091B501A50194010E9467140E9485
S11321D0DE0D88E497E00E94D80A0E94540E809194
S11321E00001811176C068E080E00E94CF098CE391
S11321F097E00E94FC0A6091C2017091C301809132
S1132200C4019091C501A50194010E946714CA01FB
S1132210B9010E94DE0D88E497E00E94D80A60E1CB
S113222080E00E94CF0985E397E00E94FC0A809138
S1132230BE019091BF01A091C001B091C101803A4B
S11322409C48A105B10508F0EFCE80E30E94D50AB1
S11322506091BE017091BF018091C0019091C10154
S1132260A70196010E94671480E3820F0E94D50A99
S1132270EBCE80E30E94D50A6091BE017091BF014C
S11322808091C0019091C101A70196010E94671439
S1132290A30192010E94671480E3860F0E94D50A6D
S11322A027CF80E30E94D50A6091BE017091BF01DF
S11322B08091C0019091C101A70196010E94671409
S11322C0A30192010E94671480E3820F0E94D50A41
S11322D0E4CEFF90EF90DF90CF90BF90AF909F90AF
S11322E08F907F906F905F904F900C94850980E25F
S11322F097E00E94A50B65E187E10E94CF098EE279
S11323000E94D20A6CE08AE10E94CF0980E30E9415
S1132310100B65E18BE20E94CF0982E497E00E94F2
S1132320FC0A61E280E00E94CF098CE397E00E94FE
S1132330FC0A6091C2017091C3018091C401909123
S1132340C50138EEC32E33E0D32EE12CF12CA701C6
S113235096010E946714CA01B9010E94DE0D88E447
S113236097E00E94FC0A69E280E00E94CF0983E2C0
S113237097E00E94FC0A6091B2017091B3018091D0
S1132380B4019091B501A70196010E946714CA0196
S1132390B9010E94DE0D69E280E30E94CF098EE25A
S11323A00E94D20A69E283E30E94CF096091B201DC
S11323B07091B3018091B4019091B501A701960188
S11323C00E9467140E94DE0D88E497E00E94FC0AD4
S11323D0FF90EF90DF90CF90BF90AF909F908F9041
S11323E07F906F905F904F900C94540EC701B6018C
S11323F020EA36E841E050E00E94671480E3820F4F
S11324000E94100BC701B60120E137E240E050E022
S11324100E946714CA01B9012AE030E040E050E0AC
S11324200E94671480E3860F0E94100B88CD28EE6B
S113243033E040E050E00E94671480E3820F0E9482
S1132440100B67CF24E630E040E050E00E946714B0
S113245080E3820F0E94100B5CCF1F920F920FB685
S11324600F9211248F939F938091CD01882361F063
S11324708091C7018F5F8093C7019F918F910F90C7
S11324800FBE0F901F90189581E08093CD0180932B
S1132490C7018093C60180ED93E0909389008093F7
S11324A0880090938B0080938A00809181008D60D6
S11324B08093810080916F00866080936F009F916C
S11324C08F910F900FBE0F901F9018951F920F922F
S11324D00FB60F9211242F933F934F935F936F93F3
S11324E07F938F939F93AF93BF938091C601409145
S11324F0C70120910201309103016091C60185302A
S113250008F440C0429FC001439F900D112470E025
S11325100E945314CB01A0E0B0E08093C8019093D3
S1132520C901A093CA01B093CB018091C8019091D5
S1132530C901A091CA01B091CB01892B8A2B8B2BA5
S1132540A1F01092C70181E08093C601BF91AF91C1
S11325509F918F917F916F915F914F913F912F91B7
S11325600F900FBE0F901F90189580918100827F6D
S11325708093810080916F008D7F80936F00109213
S1132580CD01E4CF429FC001439F900D112470E020
S11325900E945314CB01A0E0B0E08093C801909353
S11325A0C901A093CA01B093CB018091C6018F5F8A
S11325B08093C601CBCF1F920F920FB60F921124B6
S11325C0CF92DF92EF92FF922F933F934F935F93BB
S11325D06F937F938F939F93AF93BF93EF93FF93E7
S11325E06091C8017091C9018091CA019091CB0199
S11325F028EE33E040E050E00E94671469017A015C
S11326008091C2019091C301A091C401B091C50110
S1132610820F931FA41FB51F8093C2019093C3011F
S1132620A093C401B093C5018091B2019091B3010C
S1132630A091B401B091B501820F931FA41FB51FDF
S11326408093B2019093B301A093B401B093B50108
S11326508091BE019091BF01A091C001B091C101D0
S11326600196A11DB11D8093BE019093BF01A0935B
S1132670C001B093C1016091C2017091C301809106
S1132680C4019091C5012091BE013091BF014091D8
S1132690C0015091C1010E9467142093BA01309384
S11326A0BB014093BC015093BD018091B601909150
S11326B0B701A091B801B091B9018C159D05AE0583
S11326C0BF0540F4C092B601D092B701E092B801C0
S11326D0F092B901FF91EF91BF91AF919F918F91CA
S11326E07F916F915F914F913F912F91FF90EF9068
S11326F0DF90CF900F900FBE0F901F901895CF933F
S1132700DF931F92CDB7DEB784B18C6284B924986D
S11327108CB580658CBD8DB589838EB589830F900A
S1132720DF91CF9108958EBD0DB407FEFDCF0895BE
S11327301F920F920FB60F9211248F93EF93FF9372
S1132740E091CE01F0E0EA5EFD4F8081811110C07E
S11327508CB58F778CBD81E0809304011092CE01FB
S1132760FF91EF918F910F900FBE0F901F901895CE
S1132770E091CE0181E08E0F8093CE01F0E0EA5E1D
S1132780FD4F80818EBDFF91EF918F910F900FBE11
S11327900F901F90189585E090E09093C50080936A
S11327A0C400E1ECF0E0808188698083E2ECF0E031
S11327B08081866080831092D2011092D1011092A0
S11327C0D0011092CF010895CF93DF93EC0188815B
S11327D08823E1F030E0DE012091D0019091CF0117
S11327E02917D1F39091D0019F5F9F739093D001EB
S11327F0E091D001F0E0EA5AFD4F90819C933F5F55
S1132800DE01A30FB11D9C919111E6CFDF91CF9111
S113281008951F920F920FB60F9211248F939F93D6
S1132820EF93FF939091D2018091D1019817A9F071
S1132830E091D201EF5FEF73E093D201F0E0EA564A
S1132840FD4F80818093C600FF91EF919F918F91FE
S11328500F900FBE0F901F9018958091C1008F7D2F
S11328608093C100F1CF1F920F920FB60F921124E3
S11328708F939F93EF93FF938091C600E091CF01D4
S1132880EF5FEF73E093CF019091D001F0E0EA5A4B
S1132890FD4F8083FF91EF919F918F910F900FBE19
S11328A00F901F901895AA1BBB1B51E107C0AA1FCC
S11328B0BB1FA617B70710F0A61BB70B881F991FDD
S11328C05A95A9F780959095BC01CD010895A1E290
S11328D01A2EAA1BBB1BFD010DC0AA1FBB1FEE1F96
S11328E0FF1FA217B307E407F50720F0A21BB30BE1
S11328F0E40BF50B661F771F881F991F1A9469F75D
S113290060957095809590959B01AC01BD01CF01B8
S11329100895052E97FB1EF400940E94A01457FD01
S113292007D00E94671407FC03D04EF40C94A01443
S113293050954095309521953F4F4F4F5F4F0895E7
S113294090958095709561957F4F8F4F9F4F089517
S11329500E94B314A59F900DB49F900DA49F800D69
S1132960911D11240895A29FB001B39FC001A39F9C
S1132970700D811D1124911DB29F700D811D1124B4
S10B2980911D0895F894FFCFA6
S113298801011A08012D012901250121011D011840
S11329980113010F010B0107010301FF0049014560
S11329A80141013D0139013501310123232300008F
S9030000FC
