:100000000C94AF030C942D120C94CC030C94CC03E1
:100010000C94CC030C94CC030C94CC030C94CC0324
:100020000C94CC030C94CC030C94CC030C9466126B
:100030000C94DB120C94CC030C943E040C94CC0373
:100040000C94CC030C9498130C9433140C94091452
:100050000C94CC030C94CC030C94CC030C94CC03E4
:100060000C94E1080C94CC030C94CC030C94CC03BA
:100070000C94CC030C94CC030C94CC030C94CC03C4
:100080000C94CC030C94CC030C94CC030C94CC03B4
:100090000C94CC030C94CC030C94CC030C94CC03A4
:1000A0000C94CC030C94CC030C94CC030C94CC0394
:1000B0000C94CC034F6666004F6E00426C756574FD
:1000C0006F6F74683A20002C200054696D652073AE
:1000D000657474696E67733A005765656B6461791E
:1000E000202D2000446174653A2030302E30302EAF
:1000F00030300054696D653A2030303A3030004479
:100100006563004E6F76004F637400536570004165
:100110007567004A756C65004A756E65004D6179BA
:1001200000417072004D617200466562004A616E66
:100130000053617400467269005468750057656425
:1001400000547565004D6F6E0053756E00576865FD
:10015000656C20286D6D293A2030303030005365B1
:100160007474696E6773003230313800525620451E
:100170006C656374726F6E69637300446576656C59
:100180006F7065723A004765656B53706F727400EB
:100190005765656B646179202D2000446174653A70
:1001A0002030302E30302E30300054696D653A20CA
:1001B00030303A3030000000008080808080800045
:1001C000000000000103030303030301000000001B
:1001D000000000000000000000000000000000C05F
:1001E000C000000000000000028686868686860227
:1001F0000000000081C3C3C3C3C3C381000000FC6F
:100200007A0606060606067AFC00007EBCC0C0C060
:10021000C0C0C0BC7E0000000000000000000078EC
:10022000FC000000000000000000003C7E00000018
:10023000028686868686867AFC00007EBDC3C3C39E
:10024000C3C3C38100000000028686868686867A44
:10025000FC00000081C3C3C3C3C3C3BD7E0000FC58
:100260007880808080808078FC0000000103030398
:100270000303033D7E0000FC7A868686868686021E
:100280000000000081C3C3C3C3C3C3BD7E0000FC24
:100290007A868686868686020000007EBDC3C3C33A
:1002A000C3C3C3BD7E000000020606060606067A2A
:1002B000FC000000000000000000003C7E0000FC8C
:1002C0007A8686868686867AFC00007EBDC3C3C396
:1002D000C3C3C3BD7E0000FC7A8686868686867A86
:1002E000FC00000081C3C3C3C3C3C3BD7E000000C4
:1002F00000007C7C7C7C00000000000000003E3E92
:100300003E3E000000000000000000000000002F42
:10031000000000000700070000147F147F14002471
:100320002A7F2A120023130864620036495522509E
:1003300000000503000000001C22410000004122D3
:100340001C000014083E08140008083E08080000BD
:1003500000A06000000808080808000060600000B5
:10036000002010080402003E5149453E0000427F33
:100370004000004261514946002141454B3100187F
:1003800014127F10002745454539003C4A49493041
:1003900000017109050300364949493600064949FB
:1003A000291E000036360000000056360000000806
:1003B00014224100001414141414000041221408E3
:1003C00000020151090600324959513E007C1211C8
:1003D000127C007F49494936003E41414122007F5D
:1003E0004141221C007F49494941007F0909090117
:1003F000003E4149497A007F0808087F0000417F9C
:100400004100002040413F01007F08142241007F4D
:1004100040404040007F020C027F007F0408107FB4
:10042000003E4141413E007F09090906003E41511D
:10043000215E007F091929460046494949310001DA
:10044000017F0101003F4040403F001F2040201F2E
:10045000003F4038403F00631408146300070870F1
:10046000080700615149454300007F414100AA55FA
:10047000AA55AA55000041417F0000040201020470
:10048000004040404040000003050000002054545C
:100490005478007F484444380038444444200038AD
:1004A0004444487F00385454541800087E0901021F
:1004B0000018A4A4A47C007F080404780000447DF4
:1004C0004000004080847D00007F10284400000030
:1004D000417F4000007C04180478007C0804047804
:1004E00000384444443800FC2424241800182424F0
:1004F00018FC007C080404080048545454200004EC
:100500003F444020003C4040207C001C2040201CF8
:10051000003C4030403C004428102844001CA0A06F
:10052000A07C004464544C440000107C8200000015
:1005300000FF00000000827C100000000609090690
:10054000000000000000005F00000007000700142A
:100550007F147F14242A7F2A1223130864623649E9
:100560005522500005030000001C224100004122DA
:100570001C0014083E081408083E0808005030000B
:100580000008080808080060600000201008040245
:100590003E5149453E00427F40004261514946215B
:1005A00041454B311814127F1027454545393C4AC7
:1005B0004949300171090503364949493606494917
:1005C000291E00363600000056360000081422416D
:1005D00000141414141400412214080201510906D5
:1005E000324979413E7E1111117E7F494949363E9B
:1005F000414141227F4141221C7F494949417F09B4
:100600000909013E4149497A7F0808087F00417F76
:1006100041002040413F017F081422417F4040407B
:10062000407F020C027F7F0408107F3E4141413E23
:100630007F090909063E4151215E7F091929464675
:100640004949493101017F01013F4040403F1F209E
:1006500040201F3F4038403F631408146307087070
:1006600008076151494543007F41410002040810D9
:10067000200041417F00040201020440404040400C
:10068000000102040020545454787F484444383810
:1006900044444420384444487F3854545418087E15
:1006A0000901020C5252523E7F0804047800447D36
:1006B00040002040443D007F1028440000417F401E
:1006C000007C041804787C080404783844444438D6
:1006D0007C14141408081414187C7C0804040848BA
:1006E00054545420043F4440203C4040207C1C2073
:1006F00040201C3C4030403C44281028440C5050C2
:10070000503C4464544C44000836410000007F00D3
:100710000000413608001008081008784641467865
:100720003030004473743A20004176653A20004D21
:1007300061783A200054696D653A20004F646F3A41
:100740002000206B6D2F6800206B6D005768656579
:100750006C20286D6D293A20303030300000112493
:100760001FBECFEFD8E0DEBFCDBF11E0A0E0B1E00B
:10077000E8E8F9E202C005900D92A033B107D9F77D
:1007800022E0A0E3B1E001C01D92A63DB207E1F76F
:100790000E94780E0C94C2140C940000CF938091A8
:1007A0007201882309F445C08130E1F50E94850972
:1007B0001092CF018091CF01811131C0C1E00EC0F4
:1007C00080913001882381F188EB90E00E94FC0A3F
:1007D0000E94540E8091CF01811121C064E080E01D
:1007E0000E94CF098BEB90E00E94FC0A809171017E
:1007F0008111E6CF80913001882339F08091C100CA
:1008000087768093C1001092300184EB90E00E94C3
:10081000FC0A0E94540E8091CF018823F9F2CF91F7
:100820000C948509CF9108950E94CB13C093300199
:10083000CBCF60E080E00E94CF0981E391E00E948D
:10084000EC0ACF910C94540E87B1837F87B98AB19B
:100850008F768AB988B18C6088B98BB180698BB981
:1008600084B5826084BD85B5846085BDEEE6F0E028
:100870008081826080838BE387BD08951F920F92F1
:100880000FB60F9211242F933F934F935F936F9363
:100890007F938F939F93AF93BF93EF93FF93809139
:1008A000C701329938C09091C601992309F458C004
:1008B00033992EC09091C5019923D9F14C9925C047
:1008C0009091C401992351F14F991CC08091C301AB
:1008D000811107C081E08093C3019BB180E4892727
:1008E0008BB9FF91EF91BF91AF919F918F917F91C4
:1008F0006F915F914F913F912F910F900FBE0F908D
:100900001F9018951092C301ECCF1092C401DCCF58
:100910001092C501D3CF1092C601CACF91E0909337
:10092000C401833099F110F0843071F60E948A0777
:10093000CBCF91E09093C501209102012223E9F0F1
:10094000823009F453C0D8F1833079F1843009F052
:10095000B5CF20910301211110C090930301AECFB8
:1009600091E09093C6012FEF280F233048F08823A1
:1009700009F49ECF9093C7019BCF909302019ECF25
:100980009091C7019F5F9093C70192CF80917201B0
:10099000882311F1813009F097CF90917101982748
:1009A000909371018093CF018FCF9091720191113B
:1009B00027C0909172019F5F909372017FCF813029
:1009C00009F07CCF90917301911117C09091730140
:1009D0009F5F9093730172CF80917101882309F416
:1009E00073CF81E391E00E94E4136ECF9091C10137
:1009F000923048F01092C10161CF109273015ECF26
:100A0000109272015BCF9091C1019F5F9093C101E1
:100A100055CF80ED809300001092010010920200EB
:100A2000EDE7F1E0818180930300828180930400EF
:100A30008381809305008481809306008581809363
:100A4000070086818093080069E080E090E00C94C4
:100A50009708EF92FF921F93CF93DF937C01142F9F
:100A6000C0E0D0E080ED8883698362E080E090E0C0
:100A70000E94970881ED8883612F80E090E00E94BA
:100A80009708612FC701DF91CF911F91FF90EF90E1
:100A90000C94C30886E791E09093750180937401EC
:100AA00048E060E00E942905E0917401F091750131
:100AB0008081982F92959F708F702AE0929F800D71
:100AC000112480838181982F92959F708F702AE0E6
:100AD000929F800D112481838281982F92959F701F
:100AE0008F702AE0929F800D112482838381982F3A
:100AF00092959F708F702AE0929F800D11248383BE
:100B00008481982F92959F708F702AE0929F800D1C
:100B1000112484838581982F92959F708F702AE08D
:100B2000929F800D112485838681982F92959F70C6
:100B30008F702AE0929F800D112486830895CF93B1
:100B40001092CE011092CD0110920201809102010B
:100B5000811112C08091CD019091CE01039720F0B8
:100B60001092CE011092CD0165E185E20E947F07CF
:100B700080910201882371F3109202018091CD01CE
:100B80009091CE01C82FC295C07F1092CE011092D5
:100B9000CD0180910201811108C065E18BE20E94C4
:100BA0007F07809102018823C1F310920201809196
:100BB000CD019091CE018C2B80937F011092CE01BC
:100BC0001092CD0180910201811112C08091CD015E
:100BD0009091CE01069720F01092CE011092CD0197
:100BE00065E187E30E947F0780910201882371F30A
:100BF000109202018091CD019091CE01C82FC29533
:100C0000C07F1092CE011092CD018091020181111E
:100C100008C065E18DE30E947F078091020188236F
:100C2000C1F3109202018091CD019091CE018C2BE5
:100C300080937E011092CE011092CD01809102012D
:100C4000811112C08091CD019091CE01049720F0C6
:100C50001092CE011092CD016EE185E20E947F07D5
:100C600080910201882371F3109202018091CD01DD
:100C70009091CE01C82FC295C07F1092CE011092E4
:100C8000CD0180910201811108C06EE18BE20E94CA
:100C90007F07809102018823C1F3109202018091A5
:100CA000CD019091CE018C2B809381011092CE01C9
:100CB0001092CD0180910201811112C08091CD016D
:100CC0009091CE01029720F01092CE011092CD01AA
:100CD0006EE187E30E947F0780910201882371F310
:100CE000109202018091CD019091CE01C82FC29542
:100CF000C07F1092CE011092CD018091020181112E
:100D000008C06EE18DE30E947F0780910201882375
:100D1000C1F3109202018091CD019091CE018C2BF4
:100D2000809382011092CE011092CD018091020138
:100D3000811108C06EE189E40E947F078091020161
:100D40008823C1F3109202018091CD019091CE01D0
:100D5000C82FC295C07F1092CE011092CD01809114
:100D60000201811108C06EE18FE40E947F0780912B
:100D700002018823C1F3109202018091CD0190916C
:100D8000CE018C2B809383011092CE011092CD0165
:100D900080910201811120C08091CD019091CE01FE
:100DA000079720F01092CE011092CD0167E28CE3FC
:100DB0000E94CF09E091CD01F091CE01EE0FFF1F0F
:100DC000E35EFE4F808191810E94FC0A0E94540ED6
:100DD00080910201882301F38091CD019091CE0191
:100DE0008F5F80938001CF910C9409050F938091C0
:100DF0007301882361F1813041F50E94850960E02B
:100E000080E00E94CF098AEC90E00E94FC0A65E134
:100E100080E00E94CF0983EF90E00E94FC0A6EE11F
:100E200080E00E94CF0984EE90E00E94FC0A67E215
:100E300080E00E94CF0989ED90E00E94FC0A0E94A8
:100E40009F050E948509109273010F9108950E94D9
:100E50004A0504E02FE243E567E080E00E94310E9E
:100E60006CE08CE00E94CF09E0917401F091750173
:100E7000628170E080E090E00E94DB0D8AE30E94D6
:100E8000100BE0917401F0917501618170E080E0D8
:100E900090E00E94DB0D6EE186E00E94CF09E091B8
:100EA0007401F0917501E381F0E0EE0FFF1FE55E44
:100EB000FE4F808191810E94FC0A87EC90E00E94A5
:100EC000FC0AE0917401F0917501E581F0E0EE0F0C
:100ED000FF1FED5FFE4F808191810E94FC0A80E23E
:100EE0000E94D50AE0917401F0917501648170E06F
:100EF00080E090E00E94D80D0F910C94540E0E9457
:100F0000CF098091CD019091CE01805D0E94D20ADF
:100F10000C94540E8091CD019091CE01893038F41B
:100F20008F5F90E09093CE018093CD01089580E093
:100F300090E09093CE018093CD010895CF93C0911E
:100F40000301CC23D1F1C130B1F50E94850960E0E5
:100F500083E10E94CF098EE591E00E94FC0A6BE0DC
:100F600083E00E94CF098DE491E00E94D80A65E1F8
:100F700080E00E94CF098AEA91E00E94FC0A6EE1BB
:100F800080E00E94CF098BE991E00E94FC0A67E2B1
:100F900080E00E94CF0980E991E00E94FC0A0E9453
:100FA000880E0E949F050E9485090E94540E10928F
:100FB0000301C093C701CF91089562E084E10E94CC
:100FC000CF0986E891E00E94FC0A6CE082E00E9472
:100FD000CF098BE791E00E94FC0A65E180E00E9466
:100FE000CF098CE691E00E94FC0A68E286E30E9449
:100FF000CF0987E691E00E94FC0ACF910C94540E31
:10100000CF93C82F823009F44CC0B0F4882359F133
:10101000813039F580918501813059F081E08093EC
:10102000850180918401813021F0C09384010E9468
:101030008509CF910C94F606833011F1843089F440
:1010400080918501843051F0C093850180918401A5
:10105000843021F0C09384010E948509CF910C94C3
:101060009E07CF91089580918501882331F01092D9
:10107000850180918401811125C00E949E07CACFFD
:1010800080918501833051F0C09385018091840166
:10109000833021F0C09384010E948509CF910C9484
:1010A000CE0380918501823051F0C09385018091FB
:1010B0008401823021F0C09384010E948509CF9180
:1010C0000C940D0F109284010E948509D6CF0F93C6
:1010D0001F93CF938B019C01C42F87B18F7C87B95D
:1010E00088B1806388B960E472E48FE090E0A90180
:1010F00098010E946714CA01B90160517109810900
:1011000091094C2F50E09A01220F331F032E000C3F
:10111000440B550B0E9467142093B8001092B9003D
:1011200084E08093BC00CF911F910F910895CF93DD
:10113000DF93EC019091BC0090FDFCCF60938701A0
:10114000888180939801888180FD15C0623098F075
:10115000FE0131966250262F30E02E5F3F4F2C0F5C
:101160003D1FDF01AC1BBD0B9191A856BE4F9C9358
:10117000E217F307B1F71092A80185EA8093BC004B
:10118000DF91CF910895DC019091BC0090FDFCCFE0
:101190008091A80180FF13C0662389F091E0292F78
:1011A00030E0F901E857FE4F40812A0F3B1FF9015B
:1011B000319740839F5F691790F78091A8018170F4
:1011C00008951F920F920FB60F9211248F939F9341
:1011D000EF93FF938091B900887F803309F45DC05D
:1011E00038F18834A1F1A0F0883561F1883F09F425
:1011F00058C0803579F5E091860181E08E0F8093AB
:101200008601F0E09091BB00E857FE4F908307C045
:10121000883309F442C08034E9F4809186019091CA
:101220008701891708F041C085EC8093BC0012C08B
:10123000803109F440C0B8F481113BC085E9809346
:10124000BC0008C08091A80181608093A80184E956
:101250008093BC00FF91EF919F918F910F900FBEF3
:101260000F901F9018958032C1F0883211F08831AC
:1012700089F7E091860180918701E81718F781E0EE
:101280008E0F80938601F0E0E856FE4F80818093B8
:10129000BB0085E88093BC00DDCF85EA8093BC006D
:1012A000D9CF84E08093BC00D5CF85E88093BC0083
:1012B000D1CF883079F610928601E0E0DCCF962F0E
:1012C000969596959695E82FF0E084E5989FE00D29
:1012D000F11D1124E555FE4F677081E090E001C0DB
:1012E000880F6A95EAF79281892B828308956111AC
:1012F00006C028982A980E9493132A9A0895289A3B
:101300002A980E9493132A9A0895EDEAF1E0119227
:1013100083E0E53AF807D9F70895CF93DF9384B1D6
:10132000836084B9569A299A2A9A299883EC99E07D
:101330000197F1F700C00000299A60E081E20E9465
:10134000770960E080E90E94770960E087E00E9409
:10135000770960E081E10E94770960E080E20E9405
:10136000770960E08CE00E947709C8EFD1E061E086
:1013700080E00E9477092197D1F7DF91CF910895FE
:10138000CF93C62F2A9860E080680E94770960E0BA
:101390008C2F80640E9477092A9ACF910895EBEAF6
:1013A000F1E0808361830895DF92EF92FF920F93C3
:1013B0001F93CF93DF93282F653009F481C06630E7
:1013C00009F068C06091AC018091AB01022E000C65
:1013D000330B20523109E901CC0FDD1FC20FD31F9F
:1013E000CC0FDD1FCA5FDC4F36E0D32E01E010E0EA
:1013F000FE0124912093AA01E12CF12C26C041E0AA
:10140000460F4093AC01962F969596959695E82FAA
:10141000F0E024E5929FE00DF11D1124E555FE4F0B
:101420006770980101C0220F6A95EAF7922F909594
:10143000228192239283642F9FEFE91AF90AE8E050
:10144000EE16F104E1F02091AA0130E00E2C02C06A
:10145000359527950A94E2F720FFD1CF91E0960FBA
:101460009093AC010E945F098091AB016091AC0147
:101470009FEFE91AF90AE8E0EE16F10421F78F5F11
:101480008093AB0168506093AC01DA942196D1103F
:10149000AFCF02C08091AB01803550F01092AB010C
:1014A0008091AC01885F803308F472C01092AC0167
:1014B000DF91CF911F910F91FF90EF90DF900895F2
:1014C0006091AC018091AB01022E000C330B2052D5
:1014D0003109E901CC0FDD1FCC0FDD1FC20FD31F77
:1014E000C05CDA4F55E0D52E01E010E0FE012491FA
:1014F0002093AA01E12CF12C26C041E0460F409335
:10150000AC01962F969596959695E82FF0E024E5F8
:10151000929FE00DF11D1124E555FE4F6770980173
:1015200001C0220F6A95EAF7922F909522819223AB
:101530009283642F9FEFE91AF90AE8E0EE16F104AE
:10154000E1F02091AA0130E00E2C02C035952795DC
:101550000A94E2F720FFD1CF91E0960F9093AC016F
:101560000E945F098091AB016091AC019FEFE91A85
:10157000F90AE8E0EE16F10421F78F5F8093AB01E2
:1015800068506093AC01DA942196D110AFCF84CF2C
:101590008093AC01DF91CF911F910F91FF90EF905D
:1015A000DF90089565E00C94D40966E00C94D409AA
:1015B000CF93DF93EC01FC018491882351F0FE016D
:1015C0002196849165E00E94D409FE0184918111E5
:1015D000F6CFDF91CF910895CF93DF93EC0188810F
:1015E000882339F0219666E00E94D40989918111FF
:1015F000FACFDF91CF910895CF93DF93EC01FC01F7
:101600008491882351F0FE012196849166E00E9426
:10161000D409FE0184918111F6CFDF91CF91089515
:10162000BF92CF92DF92EF92FF920F931F93CF93CF
:10163000DF936091AC019091AB0148E1840290018D
:101640001124F901E657F2406F0182E0B82E01E063
:1016500010E076018CE0E81AF108392F962FF70197
:1016600024912093A901832F692FC0E0D0E023C0EB
:1016700041E0460F4093AC01962F9695969596952E
:10168000E82FF0E024E5929FE00DF11D1124E555CF
:10169000FE4F6770980101C0220F6A95EAF7922FFA
:1016A0009095228192239283642F2196C830D10590
:1016B000C9F02091A90130E00C2E02C03595279584
:1016C0000A94E2F720FFD4CF91E0960F9093AC01FB
:1016D0000E945F098091AB016091AC012196C830F6
:1016E000D10539F731E0380F3093AB0198EF960F01
:1016F0004FEFE41AF40AEC14FD0409F0B0CF95EFB3
:10170000980F9093AB01BA9467015CE0C50ED11CB1
:10171000B1109FCF3093AB0180EF860F8093AC0167
:10172000333530F01092AB016F3260F01092AC01A3
:10173000DF91CF911F910F91FF90EF90DF90CF90AD
:10174000BF9008956093AC01F3CFCF93DF93EC018A
:10175000FC018491882349F0FE01219684910E9426
:10176000100BFE0184918111F7CFDF91CF91089585
:10177000CF92DF92EF92FF92CF93DF936B017C01C8
:10178000463009F4B1C04C3009F455C0453039F049
:10179000DF91CF91FF90EF90DF90CF90089597FD6C
:1017A000DBC1D701C6010A97A109B1098A359105A4
:1017B000A105B10508F4E8C081E09AE0C916D1049A
:1017C000E104F1040CF080E0B701A6014456510990
:1017D00061097109443853406105710508F483E0DB
:1017E000B701A601485E534061097109483253426E
:1017F0006105710508F46EC1B701A6014051574259
:101800006109710940395F456140710508F453C1B0
:10181000823009F47DC1833009F46BC1813009F451
:1018200087C1CCE2D1E083E265E00E94D4098991CE
:101830008111FACFADCF97FD9BC1D701C6010A97A1
:10184000A109B1098A359105A105B10508F49AC02D
:1018500081E09AE0C916D104E104F1040CF080E0C3
:10186000B701A60144565109610971094438534032
:101870006105710508F483E0B701A601485E534095
:1018800061097109483253426105710508F484E029
:10189000B701A601405157426109710940395F45BE
:1018A0006140710508F480C0B701A601405A56484E
:1018B00061407109403A5B4B6D40710508F466C0A8
:1018C000823009F49BC008F45EC1833009F488C0FB
:1018D000843009F477C0CCE2D1E083E20E94100B9F
:1018E00089918111FBCF54CF97FD2AC1D701C60141
:1018F0000A97A109B1098A359105A105B10508F436
:101900003FC081E09AE0C916D104E104F1040CF073
:1019100080E0B701A60144565109610971094438B4
:1019200053406105710508F483E0B701A601485EE4
:10193000534061097109483253426105710508F449
:1019400083C0B701A601405157426109710940396E
:101950005F456140710508F468C0823009F492C0A7
:10196000833009F480C0813009F4E6C0CCE2D1E0D4
:1019700083E266E00E94D40989918111FACF08CFF1
:1019800082E0C7CF82E06CCF82E01ECFC701B601F4
:1019900020EA36E841E050E00E9489146B017C01A6
:1019A00080E3820F0E94100BC701B60120E137E2ED
:1019B00040E050E00E9489146B017C0180E3820FBB
:1019C0000E94100BC701B60128EE33E040E050E062
:1019D0000E9489146B017C0180E3820F0E94100B2E
:1019E000C701B60124E630E040E050E00E948914CF
:1019F0006B017C0180E3820F0E94100BC701B601CE
:101A00002AE030E040E050E00E948914C62F80E3D5
:101A1000820F0E94100B80E38C0FDF91CF91FF901B
:101A2000EF90DF90CF900C94100BC701B60120E12E
:101A300037E240E050E00E9489146B017C0166E0CF
:101A400080E3820F0E94D409C701B60128EE33E07B
:101A500040E050E00E9489146B017C0166E080E365
:101A6000820F0E94D409C701B60124E630E040E0AD
:101A700050E00E9489146B017C0166E080E3820FD4
:101A80000E94D409C701B6012AE030E040E050E0EE
:101A90000E948914C62F66E080E3820F0E94D40959
:101AA00066E080E38C0FDF91CF91FF90EF90DF90A5
:101AB000CF900C94D409C701B60120E137E240E091
:101AC00050E00E9489146B017C0165E080E3820F85
:101AD0000E94D409C701B60128EE33E040E050E08F
:101AE0000E9489146B017C0165E080E3820F0E94F3
:101AF000D409C701B60124E630E040E050E00E947E
:101B000089146B017C0165E080E3820F0E94D40997
:101B1000C701B6012AE030E040E050E00E9489149D
:101B2000C62F65E080E3820F0E94D40965E0B9CF3B
:101B300065E080E38C0DB7CF66E080E38C0DB3CF1A
:101B400066E08DE20E94D409C601D7FC27C06C0173
:101B5000990FEE08FF08CACE65E08DE20E94D40915
:101B6000C601D7FC20C06C01990FEE08FF0819CE02
:101B70008DE20E94100BC601D7FC0BC06C01990FBF
:101B8000EE08FF085ACE813009F0A5CE80E38C0D17
:101B900044CF882799278C199D09F0CF882799274A
:101BA0008C199D09D4CF882799278C199D09DBCFE3
:101BB00045E00C94B80B4CE00C94B80B46E00C9448
:101BC000B80BEF92FF920F931F93CF93DF93E82E02
:101BD000D62F142FF22E481710F4E42E182FFD16CE
:101BE00018F48D2FDF2DF82E01112DC01E1580F059
:101BF000CE2D6D2F8C2F0E945F09CF5F1C17C8F769
:101C0000CE2D6F2D8C2F0E945F09CF5F1C17C8F758
:101C1000FD1678F0CD2F6C2F8E2D0E945F09CF5FBF
:101C2000FC16C8F76D2F812F0E945F09DF5FFD163C
:101C3000C8F7DF91CF911F910F91FF90EF9008951A
:101C4000DF5FFD16B0F31E15D8F3CE2D6D2F8C2F50
:101C50000E945F09CF5F1C17C8F7DF5FFD1698F77A
:101C6000E8CFEF92FF920F931F93CF93DF93002360
:101C7000A1F0E82EE00ECFEFC20FDFEFD40F11E09E
:101C8000160FFF24F394F80E00E00E94E10D8F2D53
:101C9000612F4D2F2C2FEF10EECFDF91CF911F91A1
:101CA0000F91FF90EF900895CF93DF9360E080E075
:101CB0000E94C009CDEAD1E061E089910E947709D4
:101CC00083E0C53AD807C1F7DF91CF9108950E940C
:101CD00024040E947F0E40E060EA76E881E090E014
:101CE0000E9467080E947F130E948D0978940895CE
:101CF0000E94670E8091C7010E940008FBCF529896
:101D00005A9AE9E6F0E0808182608083E89A08953B
:101D10000F931F93CF93DF931092CE011092CD01BA
:101D20001092020180910201811108C06BE08FE3E3
:101D30000E947F07809102018823C1F31092020163
:101D40002091CD013091CE0188EE93E0289FE001F3
:101D5000299FD00D389FD00D11241092CE011092E2
:101D6000CD0180910201811108C06BE084E40E94E2
:101D70007F07809102018823C1F3109202018091B4
:101D8000CD019091CE0124E6289F8001299F100D5E
:101D900011240C0F1D1F1092CE011092CD018091C5
:101DA0000201811108C06BE089E40E947F078091E5
:101DB00002018823C1F3109202018091CD0190911C
:101DC000CE01EC01CC0FDD1F880F991F880F991FE2
:101DD000880F991FC80FD91F1092CE011092CD0104
:101DE00080910201811108C06BE08EE40E947F07A0
:101DF000809102018823C1F38091CD019091CE01A1
:101E0000080F191FC00FD11FD0930101C09300010B
:101E1000DF91CF911F910F9108954F925F926F9232
:101E20007F928F929F92AF92BF92CF92DF92EF926A
:101E3000FF928091C101813009F4DCC0F8F082305A
:101E400081F40E9485096BE083E00E94CF098CE455
:101E500097E00E94D80A0E94880E0E94850910927D
:101E6000C101FF90EF90DF90CF90BF90AF909F9017
:101E70008F907F906F905F904F9008950E944A05D9
:101E800060E08BE30E94CF09E0917401F09175014D
:101E9000628170E080E090E00E94D80D8AE30E94A9
:101EA000D20AE0917401F0917501618170E080E0E7
:101EB00090E00E94D80DC090D201D090D301E09064
:101EC000D401F090D5016CE080E00E94CF09C114EC
:101ED000D104E104F10409F40AC2D701C601880F54
:101EE000991FAA1FBB1F880F991FAA1FBB1F880F0E
:101EF000991FAA1FBB1FC80ED91EEA1EFB1ECC0CC1
:101F0000DD1CEE1CFF1CCC0CDD1CEE1CFF1C20EAB3
:101F1000C21626E8D20621E0E206F10408F066C205
:101F200080E30E94100BC701B60120E137E240E0D8
:101F300050E00E94671480E3820F0E94100B65E15D
:101F400087E10E94CF098EE20E94D20A6CE08AE10A
:101F50000E94CF09C701B60120E137E240E050E01E
:101F60000E9467146B017C0121E0C21AD108E108CC
:101F7000F10820EAC21626E8D20621E0E206F104C2
:101F800008F0C4C16B017C0129EEC21A23E0D20A19
:101F9000E108F10828E2C21623E2D206E104F104C6
:101FA00008F445C26B017C0125E6C21AD108E1089C
:101FB000F10824E8C21623E0D206E104F10408F493
:101FC00041C26B017C012BE0C21AD108E108F10883
:101FD0002AE5C216D104E104F10408F09AC12AE00E
:101FE00030E040E050E00E94671480E3820F0E94DE
:101FF000100B8FC10E94850910920201809102018D
:10200000811167C188EE882E83E0982EA12CB12C17
:1020100090E1C92E9EE0D92EE12CF12C2CE3422E2A
:10202000512C612C712CDFC06091B9017091BA0103
:102030008091BB019091BC01A70196010E94671499
:10204000CA01B9010E94DE0D8AE30E94D50A60919F
:10205000B9017091BA018091BB019091BC01A701B7
:1020600096010E946714683572408105910508F455
:1020700018C16091B9017091BA018091BB01909132
:10208000BC01A70196010E946714A30192010E945E
:102090006714CA01B9010E94DE0D8AE30E94D50AC5
:1020A0006091B9017091BA018091BB019091BC011E
:1020B000A70196010E946714A30192010E94671470
:1020C0006A3071058105910508F4D3C06091B901AA
:1020D0007091BA018091BB019091BC01A70196015A
:1020E0000E946714A30192010E9467140E94DE0DF2
:1020F00068E180E00E94CF0989E297E00E94FC0A33
:102100002091B5013091B6014091B7015091B801CD
:10211000A0E1BEE00E94A814A50194010E946714EA
:10212000CA01B9010E94DE0D82E497E00E94D80A3C
:1021300060E280E00E94CF098FE297E00E94FC0AF3
:102140002091B1013091B2014091B3015091B4019D
:10215000A0E1BEE00E94A814A50194010E946714AA
:10216000CA01B9010E94DE0D82E497E00E94D80AFC
:1021700068E280E00E94CF0983E297E00E94FC0AB7
:102180006091AD017091AE018091AF019091B0016D
:10219000A50194010E946714CA01B9010E94DE0DD5
:1021A00068E280E30E94CF098EE20E94D20A68E2D0
:1021B00083E30E94CF096091AD017091AE018091DF
:1021C000AF019091B001A50194010E9467140E9493
:1021D000DE0D88E497E00E94D80A0E94540E809198
:1021E0000201811176C068E080E00E94CF098CE393
:1021F00097E00E94FC0A6091BD017091BE01809140
:10220000BF019091C001A50194010E946714CA0109
:10221000B9010E94DE0D88E497E00E94D80A60E1CF
:1022200080E00E94CF0985E397E00E94FC0A80913C
:10223000B9019091BA01A091BB01B091BC01803A63
:102240009C48A105B10508F0EFCE80E30E94D50AB5
:102250006091B9017091BA018091BB019091BC016C
:10226000A70196010E94671480E3820F0E94D50A9D
:10227000EBCE80E30E94D50A6091B9017091BA015A
:102280008091BB019091BC01A70196010E94671447
:10229000A30192010E94671480E3860F0E94D50A71
:1022A00027CF80E30E94D50A6091B9017091BA01ED
:1022B0008091BB019091BC01A70196010E94671417
:1022C000A30192010E94671480E3820F0E94D50A45
:1022D000E4CEFF90EF90DF90CF90BF90AF909F90B3
:1022E0008F907F906F905F904F900C94850980E263
:1022F00097E00E94A50B65E187E10E94CF098EE27D
:102300000E94D20A6CE08AE10E94CF0980E30E9419
:10231000100B65E18BE20E94CF0982E497E00E94F6
:10232000FC0A61E280E00E94CF098CE397E00E9402
:10233000FC0A6091BD017091BE018091BF01909136
:10234000C00138EEC32E33E0D32EE12CF12CA701CF
:1023500096010E946714CA01B9010E94DE0D88E44B
:1023600097E00E94FC0A69E280E00E94CF0983E2C4
:1023700097E00E94FC0A6091AD017091AE018091DE
:10238000AF019091B001A70196010E946714CA01A4
:10239000B9010E94DE0D69E280E30E94CF098EE25E
:1023A0000E94D20A69E283E30E94CF096091AD01E5
:1023B0007091AE018091AF019091B001A70196019B
:1023C0000E9467140E94DE0D88E497E00E94FC0AD8
:1023D000FF90EF90DF90CF90BF90AF909F908F9045
:1023E0007F906F905F904F900C94540EC701B60190
:1023F00020EA36E841E050E00E94671480E3820F53
:102400000E94100BC701B60120E137E240E050E026
:102410000E946714CA01B9012AE030E040E050E0B0
:102420000E94671480E3860F0E94100B88CD28EE6F
:1024300033E040E050E00E94671480E3820F0E9486
:10244000100B67CF24E630E040E050E00E946714B4
:1024500080E3820F0E94100B5CCF1F920F920FB689
:102460000F9211248F939F938091C201882361F072
:102470008091D1018F5F8093D1019F918F910F90B7
:102480000FBE0F901F90189581E08093C20180933A
:10249000D1018093D00180ED93E0909389008093E7
:1024A000880090938B0080938A00809181008D60DA
:1024B0008093810080916F00866080936F009F9170
:1024C0008F910F900FBE0F901F9018951F920F9233
:1024D0000FB60F9211242F933F934F935F936F93F7
:1024E0007F938F939F93AF93BF938091D00140913F
:1024F000D10120910001309101016091D00185301E
:1025000008F440C0429FC001439F900D112470E029
:102510000E945314CB01A0E0B0E08093D2019093CD
:10252000D301A093D401B093D5018091D2019091B1
:10253000D301A091D401B091D501892B8A2B8B2B8B
:10254000A1F01092D10181E08093D001BF91AF91B1
:102550009F918F917F916F915F914F913F912F91BB
:102560000F900FBE0F901F90189580918100827F71
:102570008093810080916F008D7F80936F00109217
:10258000C201E4CF429FC001439F900D112470E02F
:102590000E945314CB01A0E0B0E08093D20190934D
:1025A000D301A093D401B093D5018091D0018F5F66
:1025B0008093D001CBCF1F920F920FB60F921124B0
:1025C000CF92DF92EF92FF922F933F934F935F93BF
:1025D0006F937F938F939F93AF93BF93EF93FF93EB
:1025E0006091D2017091D3018091D4019091D50175
:1025F00028EE33E040E050E00E94671469017A0160
:102600008091BD019091BE01A091BF01B091C00128
:10261000820F931FA41FB51F8093BD019093BE012D
:10262000A093BF01B093C0018091AD019091AE0124
:10263000A091AF01B091B001820F931FA41FB51FED
:102640008093AD019093AE01A093AF01B093B00120
:102650008091B9019091BA01A091BB01B091BC01E8
:102660000196A11DB11D8093B9019093BA01A09369
:10267000BB01B093BC016091BD017091BE0180911E
:10268000BF019091C0012091B9013091BA014091F0
:10269000BB015091BC010E9467142093B501309397
:1026A000B6014093B7015093B8018091B101909168
:1026B000B201A091B301B091B4018C159D05AE0596
:1026C000BF0540F4C092B101D092B201E092B301D3
:1026D000F092B401FF91EF91BF91AF919F918F91D3
:1026E0007F916F915F914F913F912F91FF90EF906C
:1026F000DF90CF900F900FBE0F901F901895CF9343
:10270000DF931F92CDB7DEB784B18C6284B9249871
:102710008CB580658CBD8DB589838EB589830F900E
:10272000DF91CF9108958EBD0DB407FEFDCF0895C2
:102730001F920F920FB60F9211248F93EF93FF9376
:10274000E091C801F0E0EA5EFD4F8081811110C088
:102750008CB58F778CBD81E0809304011092C80105
:10276000FF91EF918F910F900FBE0F901F901895D2
:10277000E091C80181E08E0F8093C801F0E0EA5E2D
:10278000FD4F80818EBDFF91EF918F910F900FBE15
:102790000F901F90189585E090E09093C50080936E
:1027A000C400E1ECF0E0808188698083E2ECF0E035
:1027B0008081866080831092CC011092CB011092B0
:1027C000CA011092C9010895CF93DF93EC0188816B
:1027D0008823E1F030E0DE012091CA019091C90127
:1027E0002917D1F39091CA019F5F9F739093CA01FB
:1027F000E091CA01F0E0EA5AFD4F90819C933F5F5F
:10280000DE01A30FB11D9C919111E6CFDF91CF9115
:1028100008951F920F920FB60F9211248F939F93DA
:10282000EF93FF939091CC018091CB019817A9F081
:10283000E091CC01EF5FEF73E093CC01F0E0EA565A
:10284000FD4F80818093C600FF91EF919F918F9102
:102850000F900FBE0F901F9018958091C1008F7D33
:102860008093C100F1CF1F920F920FB60F921124E7
:102870008F939F93EF93FF938091C600E091C901DE
:10288000EF5FEF73E093C9019091CA01F0E0EA5A5B
:10289000FD4F8083FF91EF919F918F910F900FBE1D
:1028A0000F901F901895AA1BBB1B51E107C0AA1FD0
:1028B000BB1FA617B70710F0A61BB70B881F991FE1
:1028C0005A95A9F780959095BC01CD010895A1E294
:1028D0001A2EAA1BBB1BFD010DC0AA1FBB1FEE1F9A
:1028E000FF1FA217B307E407F50720F0A21BB30BE5
:1028F000E40BF50B661F771F881F991F1A9469F761
:1029000060957095809590959B01AC01BD01CF01BC
:102910000895052E97FB1EF400940E94A01457FD05
:1029200007D00E94671407FC03D04EF40C94A01447
:1029300050954095309521953F4F4F4F5F4F0895EB
:1029400090958095709561957F4F8F4F9F4F08951B
:102950000E94B314A59F900DB49F900DA49F800D6D
:10296000911D11240895A29FB001B39FC001A39FA0
:10297000700D811D1124911DB29F700D811D1124B8
:08298000911D0895F894FFCFAA
:102988001A080101012D012901250121011D011844
:102998000113010F010B0107010301FF0049014564
:1029A8000141013D01390135013101232323000093
:00000001FF
