:100000000C949D030C94B0120C94BA030C94BA0394
:100010000C94BA030C94BA030C94BA030C94BA036C
:100020000C94BA030C94BA030C94BA030C94E51222
:100030000C94BA030C94BA030C9428040C94BA03DD
:100040000C94BA030C9473130C940E140C94E413D4
:100050000C94BA030C94BA030C94BA030C94BA032C
:100060000C94F5080C94BA030C94BA030C94BA03DC
:100070000C94BA030C94BA030C94BA030C94BA030C
:100080000C94BA030C94BA030C94BA030C94BA03FC
:100090000C94BA030C94BA030C94BA030C94BA03EC
:1000A0000C94BA030C94BA030C94BA030C94BA03DC
:1000B0000C94BA034F6666004F6E00426C7565740F
:1000C0006F6F74683A20002C200054696D652073AE
:1000D000657474696E67733A005765656B6461791E
:1000E000202D2000446174653A2030302E30302EAF
:1000F00030300054696D653A2030303A3030004479
:100100006563004E6F76004F637400536570004165
:100110007567004A756C65004A756E65004D6179BA
:1001200000417072004D617200466562004A616E66
:100130000053617400467269005468750057656425
:1001400000547565004D6F6E0053756E00576865FD
:10015000656C20286D6D293A2030303030005365B1
:100160007474696E6773003230313800525620451E
:100170006C656374726F6E69637300446576656C59
:100180006F7065723A004765656B53706F727400EB
:100190005765656B646179202D2000446174653A70
:1001A0002030302E30302E30300054696D653A20CA
:1001B00030303A3030000000008080808080800045
:1001C000000000000103030303030301000000001B
:1001D000000000000000000000000000000000C05F
:1001E000C000000000000000028686868686860227
:1001F0000000000081C3C3C3C3C3C381000000FC6F
:100200007A0606060606067AFC00007EBCC0C0C060
:10021000C0C0C0BC7E0000000000000000000078EC
:10022000FC000000000000000000003C7E00000018
:10023000028686868686867AFC00007EBDC3C3C39E
:10024000C3C3C38100000000028686868686867A44
:10025000FC00000081C3C3C3C3C3C3BD7E0000FC58
:100260007880808080808078FC0000000103030398
:100270000303033D7E0000FC7A868686868686021E
:100280000000000081C3C3C3C3C3C3BD7E0000FC24
:100290007A868686868686020000007EBDC3C3C33A
:1002A000C3C3C3BD7E000000020606060606067A2A
:1002B000FC000000000000000000003C7E0000FC8C
:1002C0007A8686868686867AFC00007EBDC3C3C396
:1002D000C3C3C3BD7E0000FC7A8686868686867A86
:1002E000FC00000081C3C3C3C3C3C3BD7E000000C4
:1002F00000007C7C7C7C00000000000000003E3E92
:100300003E3E000000000000000000000000002F42
:10031000000000000700070000147F147F14002471
:100320002A7F2A120023130864620036495522509E
:1003300000000503000000001C22410000004122D3
:100340001C000014083E08140008083E08080000BD
:1003500000A06000000808080808000060600000B5
:10036000002010080402003E5149453E0000427F33
:100370004000004261514946002141454B3100187F
:1003800014127F10002745454539003C4A49493041
:1003900000017109050300364949493600064949FB
:1003A000291E000036360000000056360000000806
:1003B00014224100001414141414000041221408E3
:1003C00000020151090600324959513E007C1211C8
:1003D000127C007F49494936003E41414122007F5D
:1003E0004141221C007F49494941007F0909090117
:1003F000003E4149497A007F0808087F0000417F9C
:100400004100002040413F01007F08142241007F4D
:1004100040404040007F020C027F007F0408107FB4
:10042000003E4141413E007F09090906003E41511D
:10043000215E007F091929460046494949310001DA
:10044000017F0101003F4040403F001F2040201F2E
:10045000003F4038403F00631408146300070870F1
:10046000080700615149454300007F414100AA55FA
:10047000AA55AA55000041417F0000040201020470
:10048000004040404040000003050000002054545C
:100490005478007F484444380038444444200038AD
:1004A0004444487F00385454541800087E0901021F
:1004B0000018A4A4A47C007F080404780000447DF4
:1004C0004000004080847D00007F10284400000030
:1004D000417F4000007C04180478007C0804047804
:1004E00000384444443800FC2424241800182424F0
:1004F00018FC007C080404080048545454200004EC
:100500003F444020003C4040207C001C2040201CF8
:10051000003C4030403C004428102844001CA0A06F
:10052000A07C004464544C440000107C8200000015
:1005300000FF00000000827C100000000609090690
:10054000000000000000005F00000007000700142A
:100550007F147F14242A7F2A1223130864623649E9
:100560005522500005030000001C224100004122DA
:100570001C0014083E081408083E0808005030000B
:100580000008080808080060600000201008040245
:100590003E5149453E00427F40004261514946215B
:1005A00041454B311814127F1027454545393C4AC7
:1005B0004949300171090503364949493606494917
:1005C000291E00363600000056360000081422416D
:1005D00000141414141400412214080201510906D5
:1005E000324979413E7E1111117E7F494949363E9B
:1005F000414141227F4141221C7F494949417F09B4
:100600000909013E4149497A7F0808087F00417F76
:1006100041002040413F017F081422417F4040407B
:10062000407F020C027F7F0408107F3E4141413E23
:100630007F090909063E4151215E7F091929464675
:100640004949493101017F01013F4040403F1F209E
:1006500040201F3F4038403F631408146307087070
:1006600008076151494543007F41410002040810D9
:10067000200041417F00040201020440404040400C
:10068000000102040020545454787F484444383810
:1006900044444420384444487F3854545418087E15
:1006A0000901020C5252523E7F0804047800447D36
:1006B00040002040443D007F1028440000417F401E
:1006C000007C041804787C080404783844444438D6
:1006D0007C14141408081414187C7C0804040848BA
:1006E00054545420043F4440203C4040207C1C2073
:1006F00040201C3C4030403C44281028440C5050C2
:10070000503C4464544C44000836410000007F00D3
:100710000000413608001008081008784641467865
:10072000303000206B6D2F6800576865656C20289D
:100730006D6D293A20303030300011241FBECFEFCC
:10074000D8E0DEBFCDBF11E0A0E0B1E0EAE0F9E221
:1007500002C005900D92A033B107D9F722E0A0E3C3
:10076000B1E001C01D92A13CB207E1F70E94EA107E
:100770000C9483140C940000CF9380917101882312
:1007800009F441C08130D1F50E94230C1092C001C0
:100790008091C00181112DC0C0E00DC0CC2381F13A
:1007A00088EB90E00E949A0CC1E00E94BA10809100
:1007B000C00181111EC064E080E00E946F0C8BEBD1
:1007C00090E00E949A0C809170018111E7CFCC23B8
:1007D00029F08091C10087768093C10084EB90E07E
:1007E0000E949A0CC0E00E94BA108091C001882338
:1007F00011F310927101CF910C94230CCF910895B5
:100800000E94A613CDCF60E080E00E946F0C80E3D1
:1008100091E00E948B0CCF910C94BA1087B1837F2A
:1008200087B98AB18F768AB988B18C6088B98BB163
:1008300080698BB984B5826084BD85B5846085BDCF
:10084000EEE6F0E08081826080838BE387BD0895CF
:100850001F920F920FB60F9211242F933F934F9335
:100860005F936F937F938F939F93AF93BF93EF9318
:10087000FF9380918901329938C090917501992335
:1008800009F458C033992EC0909174019923D9F17D
:100890004C9925C090917301992351F14F991CC037
:1008A00080917201811107C081E0809372019BB138
:1008B00080E489278BB9FF91EF91BF91AF919F9110
:1008C0008F917F916F915F914F913F912F910F90F9
:1008D0000FBE0F901F90189510927201ECCF1092DE
:1008E0007301DCCF10927401D3CF10927501CACF7F
:1008F00091E090937301833099F110F0843071F698
:100900000E946907CBCF91E0909374012091000180
:100910002223E9F0823009F453C0D8F1833079F111
:10092000843009F0B5CF20910101211110C09093BE
:100930000101AECF91E0909375012FEF280F233086
:1009400048F0882309F49ECF909389019BCF909320
:1009500000019ECF909189019F5F9093890192CF72
:1009600080917101882311F1813009F097CF909126
:1009700070019827909370018093C0018FCF909160
:10098000710191112AC0909171019F5F9093710143
:100990007FCF813009F07CCF9091760191111AC000
:1009A000909176019F5F9093760172CF8091700154
:1009B000882309F473CF80E391E00E94BF136ECFC8
:1009C0009091B70191110CC09091B7019F5F9093E6
:1009D000B7015ECF109276015BCF1092710158CFB4
:1009E0001092B70155CFCF93DF9389E791E09093B1
:1009F000780180937701C0E0D0E080ED8883198290
:100A000062E080E090E00E94760881ED888368E0F3
:100A100080E090E00E94760868E089E791E00E941B
:100A2000D708E0917701F09178018081982F929515
:100A30009F708F702AE0929F800D112480838181A6
:100A4000982F92959F708F702AE0929F800D1124AD
:100A500081838281982F92959F708F702AE0929F58
:100A6000800D112482838381982F92959F708F70BF
:100A70002AE0929F800D112483838481982F929580
:100A80009F708F702AE0929F800D1124848385814E
:100A9000982F92959F708F702AE0929F800D11245D
:100AA00085838681982F92959F708F702AE0929F00
:100AB000800D11248683DF91CF910895CF931092FA
:100AC000BF011092BE0110920001809100018111BE
:100AD00012C08091BE019091BF01039720F0109247
:100AE000BF011092BE0165E185E20E945E07809120
:100AF0000001882371F3109200018091BE01909152
:100B0000BF01C82FC295C07F1092BF011092BE01D5
:100B100080910001811108C065E18BE20E945E07AF
:100B2000809100018823C1F3109200018091BE01E1
:100B30009091BF018C2B809382011092BF01109283
:100B4000BE0180910001811112C08091BE0190917F
:100B5000BF01069720F01092BF011092BE0165E11F
:100B600087E30E945E0780910001882371F3109251
:100B700000018091BE019091BF01C82FC295C07F36
:100B80001092BF011092BE0180910001811108C036
:100B900065E18DE30E945E07809100018823C1F327
:100BA000109200018091BE019091BF018C2B809327
:100BB00081011092BF011092BE018091000181114C
:100BC00012C08091BE019091BF01049720F0109255
:100BD000BF011092BE016EE185E20E945E07809126
:100BE0000001882371F3109200018091BE01909161
:100BF000BF01C82FC295C07F1092BF011092BE01E5
:100C000080910001811108C06EE18BE20E945E07B5
:100C1000809100018823C1F3109200018091BE01F0
:100C20009091BF018C2B809384011092BF01109290
:100C3000BE0180910001811112C08091BE0190918E
:100C4000BF01029720F01092BF011092BE016EE129
:100C500087E30E945E0780910001882371F3109260
:100C600000018091BE019091BF01C82FC295C07F45
:100C70001092BF011092BE0180910001811108C045
:100C80006EE18DE30E945E07809100018823C1F32D
:100C9000109200018091BE019091BF018C2B809336
:100CA00085011092BF011092BE0180910001811157
:100CB00008C06EE189E40E945E07809100018823EC
:100CC000C1F3109200018091BE019091BF01C82F25
:100CD000C295C07F1092BF011092BE0180910001A9
:100CE000811108C06EE18FE40E945E0780910001CF
:100CF0008823C1F3109200018091BE019091BF0141
:100D00008C2B809386011092BF011092BE018091BE
:100D10000001811120C08091BE019091BF01079711
:100D200020F01092BF011092BE0167E28CE30E9496
:100D30006F0CE091BE01F091BF01EE0FFF1FE35E6B
:100D4000FE4F808191810E949A0C0E94BA1080917E
:100D50000001882301F38091BE019091BF018F5F54
:100D60008093830190ED9093000010920100109207
:100D700002009091810190930300909182019093E1
:100D80000400809305008091840180930600809187
:100D9000850180930700809186018093080069E0B7
:100DA00080E090E0CF910C9476080F9380917601CB
:100DB000882361F1813041F50E94230C60E080E0DE
:100DC0000E946F0C8AEC90E00E949A0C65E180E032
:100DD0000E946F0C83EF90E00E949A0C6EE180E01D
:100DE0000E946F0C84EE90E00E949A0C67E280E013
:100DF0000E946F0C89ED90E00E949A0C0E945E05A3
:100E00000E94230C109276010F9108950E94F30422
:100E100004E02FE243E567E080E00E940C106CE004
:100E20008CE00E946F0CE0917701F0917801628173
:100E300070E080E090E00E94380F8AE30E94AD0CE1
:100E4000E0917701F0917801618170E080E090E0BD
:100E50000E94380F6EE186E00E946F0CE0917701EE
:100E6000F0917801E381F0E0EE0FFF1FE55EFE4FA9
:100E7000808191810E949A0C87EC90E00E949A0CEC
:100E8000E0917701F0917801E581F0E0EE0FFF1F2E
:100E9000ED5FFE4F808191810E949A0C80E20E945A
:100EA000760CE0917701F0917801648170E080E048
:100EB00090E00E94840E0F910C94BA100E946F0C67
:100EC0008091BE019091BF01805D0E94740C0C94D2
:100ED000BA108091BE019091BF01893038F48F5FC4
:100EE00090E09093BF018093BE01089580E090E070
:100EF0009093BF018093BE010895CF93C0910101EB
:100F0000CC23D1F1C130B1F50E94230C60E083E124
:100F10000E946F0C8EE591E00E949A0C6BE083E0DA
:100F20000E946F0C8DE491E00E94780C65E180E0F6
:100F30000E946F0C8AEA91E00E949A0C6EE180E0B8
:100F40000E946F0C8BE991E00E949A0C67E280E0AE
:100F50000E946F0C80E991E00E949A0C0E94FA10A6
:100F60000E945E050E94230C0E94BA10109201019B
:100F7000C0938901CF91089562E084E10E946F0CD3
:100F800086E891E00E949A0C6CE082E00E946F0C6F
:100F90008BE791E00E949A0C65E180E00E946F0C63
:100FA0008CE691E00E949A0C68E286E30E946F0C46
:100FB00087E691E00E949A0CCF910C94BA10CF93DF
:100FC000C82F823009F44CC0B0F4882359F1813025
:100FD00039F580918801813059F081E08093880152
:100FE00080918701813021F0C09387010E94230CFA
:100FF000CF910C94D506833011F1843089F480911F
:101000008801843051F0C093880180918701843039
:1010100021F0C09387010E94230CCF910C947D078F
:10102000CF91089580918801882331F01092880132
:1010300080918701811125C00E947D07CACF8091D0
:101040008801833051F0C0938801809187018330FB
:1010500021F0C09387010E94230CCF910C94BC0314
:1010600080918801823051F0C0938801809187017E
:10107000823021F0C09387010E94230CCF910C9401
:101080007F11109287010E94230CD6CF0F931F93DC
:10109000CF938B019C01C42F87B18F7C87B988B116
:1010A000806388B960E472E48FE090E0A901980160
:1010B0000E944214CA01B901605171098109910964
:1010C0004C2F50E09A01220F331F032E000C440BCB
:1010D000550B0E9442142093B8001092B90084E08E
:1010E0008093BC00CF911F910F910895FC019091C6
:1010F000BC0090FDFCCF60938B01808180939C01AC
:10110000808180FD4EC0623008F44BC081818093A5
:101110009D01623009F445C0828180939E01633055
:1011200009F43FC0838180939F016430D1F18481B1
:101130008093A0016530A9F185818093A10166307B
:1011400081F186818093A201673059F18781809374
:10115000A301683031F180858093A401693009F1E1
:1011600081858093A5016A30E1F082858093A60194
:101170006B30B9F083858093A7016C3091F0848542
:101180008093A8016D3069F085858093A9016E3048
:1011900041F086858093AA016F3019F0878580938E
:1011A000AB011092AC0185EA8093BC000895DC018C
:1011B0009091BC0090FDFCCF8091AC0180FF13C0EA
:1011C000662389F091E0292F30E0F901E457FE4FC2
:1011D00040812A0F3B1FF901319740839F5F6917B8
:1011E00090F78091AC01817008951F920F920FB615
:1011F0000F9211248F939F93EF93FF938091B900E7
:10120000887F803309F45DC038F18834A1F1A0F003
:10121000883561F1883F09F458C0803579F5E0914F
:101220008A0181E08E0F80938A01F0E09091BB00EB
:10123000E457FE4F908307C0883309F442C08034DE
:10124000E9F480918A0190918B01891708F041C0DF
:1012500085EC8093BC0012C0803109F440C0B8F422
:1012600081113BC085E98093BC0008C08091AC012E
:1012700081608093AC0184E98093BC00FF91EF9181
:101280009F918F910F900FBE0F901F9018958032F5
:10129000C1F0883211F0883189F7E0918A0180919C
:1012A0008B01E81718F781E08E0F80938A01F0E038
:1012B000E456FE4F80818093BB0085E88093BC009C
:1012C000DDCF85EA8093BC00D9CF84E08093BC0059
:1012D000D5CF85E88093BC00D1CF883079F61092C5
:1012E0008A01E0E0DCCFEF92FF920F931F93CF9340
:1012F000DF931091B001C091AF01082E000C990B43
:101300008097FC01EE0FFF1FE80FF91FEE0FFF1F84
:10131000EA5FFC4FD6E0DC0F312F41E050E0C2C065
:101320003E2D309512966C911297362312963C936F
:1013300061E0670F372F369536953695DC0104E569
:10134000309FA00DB11D1124A155BE4F77707A01B9
:1013500001C0EE0C7A95EAF721FD0DC13E2D3095C6
:1013600012967C911297372312963C9331E0360FF8
:10137000762F769576957695DC0104E5709FA00D25
:10138000B11D1124A155BE4F67707A0102C0EE0C49
:10139000FF1C6A95E2F7B70122FDE6C06095129640
:1013A0007C911297672312966C9361E0630F732F01
:1013B000769576957695DC0104E5709FA00DB11DBC
:1013C0001124A155BE4F37707A0101C0EE0C3A9539
:1013D000EAF723FDC2C03E2D309512967C911297FC
:1013E000372312963C9331E0360F762F769576951B
:1013F0007695DC0104E5709FA00DB11D1124A15567
:10140000BE4F67707A0102C0EE0CFF1C6A95E2F7CE
:10141000B70124FD9BC0609512967C9112976723BB
:1014200012966C9361E0630F732F7695769576959F
:10143000DC0104E5709FA00DB11D1124A155BE4F24
:1014400037707A0101C0EE0C3A95EAF725FD77C0B6
:101450003E2D309512967C911297372312963C932D
:1014600031E0360F762F76957695769526FD3AC043
:10147000A4E57A9F800D911D1124DC01A155BE4F7A
:101480006770CA0101C0880F6A95EAF780951296C5
:101490009C911297892312968C93CF5F3750319687
:1014A000CD17C9F1249171E0730F8C2F90E0632F59
:1014B000669566956695DC0104E5609FA00DB11DFB
:1014C0001124A155BE4F37707A0101C0EE0C3A9538
:1014D000EAF720FF25CF12963C911297E32A129645
:1014E000EC9226CF04E5709F800D911D1124DC0144
:1014F000A155BE4F6770CA0101C0880F6A95EAF70F
:1015000012969C911297892B12968C93CF5F37502D
:101510003196CD13C7CF185F2093AE01C093AF01B2
:10152000C03530F01092AF01103360F11092B0016D
:10153000DF91CF911F910F91FF90EF900895129638
:101540003C911297E32A1296EC928ACF12967C91E4
:101550001297672B12966C9365CF12963C91129757
:10156000E32A1296EC923FCF12967C911297672B4A
:1015700012966C931ACF12963C911297E32A129608
:10158000EC92F4CE1093B001DF91CF911F910F91A7
:10159000FF90EF900895EF92FF920F931F93CF93D8
:1015A000DF931091B001C091AF01082E000C990B90
:1015B0008097FC01EE0FFF1FEE0FFF1FE80FF91FD2
:1015C000E05CFA4FD5E0DC0F312F41E050E0C2C0C3
:1015D0003E2D309512966C911297362312963C93BD
:1015E00061E0670F372F369536953695DC0104E5B7
:1015F000309FA00DB11D1124A155BE4F77707A0107
:1016000001C0EE0C7A95EAF721FD0DC13E2D309513
:1016100012967C911297372312963C9331E0360F45
:10162000762F769576957695DC0104E5709FA00D72
:10163000B11D1124A155BE4F67707A0102C0EE0C96
:10164000FF1C6A95E2F7B70122FDE6C0609512968D
:101650007C911297672312966C9361E0630F732F4E
:10166000769576957695DC0104E5709FA00DB11D09
:101670001124A155BE4F37707A0101C0EE0C3A9586
:10168000EAF723FDC2C03E2D309512967C91129749
:10169000372312963C9331E0360F762F7695769568
:1016A0007695DC0104E5709FA00DB11D1124A155B4
:1016B000BE4F67707A0102C0EE0CFF1C6A95E2F71C
:1016C000B70124FD9BC0609512967C911297672309
:1016D00012966C9361E0630F732F769576957695ED
:1016E000DC0104E5709FA00DB11D1124A155BE4F72
:1016F00037707A0101C0EE0C3A95EAF725FD77C004
:101700003E2D309512967C911297372312963C937A
:1017100031E0360F762F76957695769526FD3AC090
:10172000A4E57A9F800D911D1124DC01A155BE4FC7
:101730006770CA0101C0880F6A95EAF78095129612
:101740009C911297892312968C93CF5F37503196D4
:10175000CD17C9F1249171E0730F8C2F90E0632FA6
:10176000669566956695DC0104E5609FA00DB11D48
:101770001124A155BE4F37707A0101C0EE0C3A9585
:10178000EAF720FF25CF12963C911297E32A129692
:10179000EC9226CF04E5709F800D911D1124DC0191
:1017A000A155BE4F6770CA0101C0880F6A95EAF75C
:1017B00012969C911297892B12968C93CF5F37507B
:1017C0003196CD13C7CF185F2093AE01C093AF0100
:1017D000C03530F01092AF01103360F11092B001BB
:1017E000DF91CF911F910F91FF90EF900895129686
:1017F0003C911297E32A1296EC928ACF12967C9132
:101800001297672B12966C9365CF12963C911297A4
:10181000E32A1296EC923FCF12967C911297672B97
:1018200012966C931ACF12963C911297E32A129655
:10183000EC92F4CE1093B001DF91CF911F910F91F4
:10184000FF90EF90089588EF91E0E1EBF1E0DF0188
:101850009C011D9221503040E1F70895CF93DF9312
:1018600084B1836084B9569A299A2A9A299883EC7C
:1018700099E00197F1F700C00000299A28982A986A
:1018800081E20E946E132A9A28982A9880E90E9481
:101890006E132A9A28982A9887E00E946E132A9A33
:1018A00028982A9881E10E946E132A9A28982A98EB
:1018B00080E20E946E132A9A28982A988CE00E944F
:1018C0006E132A9AC8EFD1E0289A2A9880E00E94E5
:1018D0006E132A9A2197C1F7DF91CF910895EFEA0D
:1018E000F1E08083618308950C94CB0A0C94730912
:1018F000CF93DF93EC01FC018491882349F0FE0132
:10190000219684910E94CB0AFE0184918111F7CF28
:10191000DF91CF910895CF93DF93EC0188818823E5
:1019200031F021960E94730989918111FBCFDF91DB
:10193000CF910895CF93DF93EC01FC01849188232C
:1019400049F0FE01219684910E947309FE01849161
:101950008111F7CFDF91CF9108952F923F924F924F
:101960005F926F927F928F929F92AF92BF92CF922F
:10197000DF92EF92FF920F931F93CF93DF93CDB738
:10198000DEB7A0970FB6F894DEBF0FBECDBF809034
:10199000B0018B8AA090AF01AD8E282D2A5F2A8BD3
:1019A000382D3B5F3F8B482D4C5F4D8B582D5D5F35
:1019B000588F682D6E5F6C8B782D7F5F7E8B082E25
:1019C000000C990B8D979C01220F331F820F931FE0
:1019D000880F991F880F991F880F991F9C012A54FF
:1019E0003E4F3A8F298F382D305F3E8F898A9A2C4F
:1019F0004CE0940EAA24A394B12CE98DFA8D3D8C71
:101A0000598957704E8947703C893770288D2770E7
:101A10009D8997708F898770AA89A7700989069513
:101A20000695069564E5069F80011124650102C0B4
:101A3000CC0CDD1C5A95E2F7DE86CD86C094C982B7
:101A4000DE88D694D694D69454E5D59E70011124A0
:101A5000FC8EEB8EB50102C0660F771F4A95E2F748
:101A6000788B6F87762E70946C89669566956695EF
:101A7000B4E56B9FB0011124650102C0CC0CDD1CE4
:101A80003A95E2F7DC82CB826C2C6094488D4695C7
:101A90004695469534E5439FA0011124650102C097
:101AA000CC0CDD1C2A95E2F7DE82CD825C2C5094B2
:101AB0002D89269526952695B4E52B9F9001112416
:101AC000650102C0CC0CDD1C9A95E2F7D886CF8266
:101AD0004C2C4094EF88E694E694E69494E5E99ED5
:101AE00070011124650102C0CC0CDD1C8A95E2F75F
:101AF000DA86C986C094CA82CA88C694C694C69437
:101B000084E5C89E60011124C50102C0880F991F99
:101B1000AA95E2F79C878B87282E20948B8D9C8D2D
:101B200098A38F8FBC8EAB8E58C0A9808A20129646
:101B30008C92AF8DB8A1A80FB91FA155BE4F1296B8
:101B40008C901297B1FCC5C0872012968C92DB0155
:101B5000A80FB91FA155BE4F12968C901297B2FCD8
:101B6000B3C0862012968C92DA01A80FB91FA15536
:101B7000BE4F12968C901297B3FCA1C0852012968E
:101B80008C92D901A80FB91FA155BE4F12968C9007
:101B90001297B4FC8FC0842012968C92D701A80FA4
:101BA000B91FA155BE4FB5FC7DC012968C901297FF
:101BB000AA808A2012968C928C0D9D1DDC01A15565
:101BC000BE4F12968C911297B6FC19C082211296C4
:101BD0008C93339431963914D1F0B490832D90E0E6
:101BE000D801A80FB91FA155BE4F12968C9012971D
:101BF000B0FE9BCFAD848A2812968C929ACFAB848C
:101C00008A2912968C93339431963910E6CF2B2C77
:101C1000AB8CBC8C2989285F298B3A89385F3A8B39
:101C20004F89485F4F8B5D89585F5D8B688D685F1A
:101C3000688F7C89785F7C8B8E89885F8E8B298DFD
:101C40003A8D245F3F4F3A8F298F3E8D4989341357
:101C5000D4CE2092AD013092AF019B899093B00118
:101C6000B2E5B31530F41092AF013F32B8F11092E3
:101C7000B001A0960FB6F894DEBF0FBECDBFDF91C6
:101C8000CF911F910F91FF90EF90DF90CF90BF9079
:101C9000AF909F908F907F906F905F904F903F900C
:101CA0002F9008951296AC9012978984A8281296C6
:101CB000AC9282CFAF808A2812968C926FCFAD8083
:101CC0008A2812968C925DCFAB808A2812968C92CD
:101CD0004BCFAF848A2812968C9239CF3093B001C3
:101CE000C8CFCF93DF93EC01FC018491882349F0A6
:101CF000FE01219684910E94AD0CFE018491811118
:101D0000F7CFDF91CF910895CF92DF92EF92FF92BC
:101D1000CF93DF936B017C0197FD9AC0D701C60179
:101D20000A97A109B1098A359105A105B10508F401
:101D300040C081E09AE0C916D104E104F104DCF569
:101D4000B701A6014456510961097109443853404D
:101D50006105710508F483E0B701A601485E5340B0
:101D6000610971094832534261057105A0F1B7015B
:101D7000A601405157426109710940395F456140F0
:101D80007105D8F0823009F442C0833091F181307E
:101D900009F454C0CCE2D1E083E20E94CB0A8991DD
:101DA0008111FBCFDF91CF91FF90EF90DF90CF902B
:101DB000089582E0C5CF80E0C3CFC701B60120E11E
:101DC00037E240E050E00E9464146B017C0180E344
:101DD000820F0E94CB0AC701B60128EE33E040E033
:101DE00050E00E9464146B017C0180E3820F0E942A
:101DF000CB0AC701B60124E630E040E050E00E9483
:101E000064146B017C0180E3820F0E94CB0AC7013E
:101E1000B6012AE030E040E050E00E946414C62F92
:101E200080E3820F0E94CB0A80E38C0FDF91CF9179
:101E3000FF90EF90DF90CF900C94CB0A80E38C0D55
:101E4000DF91CF91FF90EF90DF90CF900C94CB0A71
:101E50008DE20E94CB0AC601D7FC05C06C01990F28
:101E6000EE08FF085BCF882799278C199D09F6CFCC
:101E7000CF92DF92EF92FF92CF93DF936B017C01C1
:101E800097FDADC0D701C6010A97A109B1098A35EE
:101E90009105A105B10508F44FC081E09AE0C9168B
:101EA000D104E104F1040CF049C0B701A601445685
:101EB000510961097109443853406105710508F4FD
:101EC00083E0B701A601485E5340610971094832B9
:101ED00053426105710508F484E0B701A601405141
:101EE00057426109710940395F4561407105B0F1A0
:101EF000B701A601405A564861407109403A5B4B10
:101F00006D407105E8F0823009F452C008F472C0E7
:101F1000833009F43FC0843079F1CCE2D1E083E230
:101F20000E94AD0C89918111FBCFDF91CF91FF9081
:101F3000EF90DF90CF90089582E0B7CF80E0B5CFEB
:101F4000C701B60120EA36E841E050E00E9464147F
:101F50006B017C0180E3820F0E94AD0CC701B601CA
:101F600020E137E240E050E00E9464146B017C0104
:101F700080E3820F0E94AD0CC701B60128EE33E06A
:101F800040E050E00E9464146B017C0180E3820F0A
:101F90000E94AD0CC701B60124E630E040E050E0FD
:101FA0000E9464146B017C0180E3820F0E94AD0CDF
:101FB000C701B6012AE030E040E050E00E9464141E
:101FC000C62F80E3820F0E94AD0C80E38C0FDF915F
:101FD000CF91FF90EF90DF90CF900C94AD0C8DE2FD
:101FE0000E94AD0CC601D7FC12C06C01990FEE081F
:101FF000FF0848CF813009F090CF80E38C0DDF914E
:10200000CF91FF90EF90DF90CF900C94AD0C88278C
:1020100099278C199D09E9CFCF92DF92EF92FF9219
:102020000F931F93CF93DF93002309F48DC0080F04
:10203000C1E0D0E07FEF720F1FEF140FDD24D394C7
:10204000D60ECC24C394C80E481708F486C02617B1
:1020500018F4922F262F692F562F56955695569580
:1020600094E5599FD0011124362F3770EC2E032EA2
:1020700001C0EE0C0A94EAF7982FFD01E90FF11D5B
:10208000E155FE4FF280FE28F2829F5F4917A8F7C4
:10209000A22FA695A695A69594E5A99FD0011124F7
:1020A000922F9770EC2E01C0EE0C9A95EAF7982FBC
:1020B000FD01E90FF11DE155FE4FF280FE28F2828D
:1020C0009F5F4917A8F72617C8F1E82EF12C962F25
:1020D000892F869586958695F701A4E58A9FE00D60
:1020E000F11D1124E155FE4F892F8770DE0101C0DB
:1020F000AA0F8A95EAF78281A82BA2839F5F2917EE
:1021000038F7A42FB0E02F5F06C0562F569556958E
:102110005695362F3770FD0184E5589FE00DF11D6F
:102120001124E155FE4FCE0101C0880F3A95EAF720
:102130009281892B82836F5F6213E7CF8C2D6D2D87
:10214000412F272FC01276CFDF91CF911F910F9192
:10215000FF90EF90DF90CF900895261720F0942FF6
:10216000482F892F79CF942F482F892F922F262FF0
:10217000692F72CFCF93DF932A9828982A9880E806
:102180000E946E132A9A28982A9880E40E946E135F
:102190002A9A2A9AC1EBD1E08991289A2A980E941A
:1021A0006E132A9A83E0C93AD807B1F7DF91CF912D
:1021B00008950E940E040E94F11040E060EA76E863
:1021C00081E090E00E9446080E945A130E942E0C63
:1021D000789408950E94D910809189010E94DF07A8
:1021E000FBCF52985A9AE9E6F0E0808182608083C2
:1021F000E89A08950F931F93CF93DF931092BF0136
:102200001092BE011092000180910001811108C05E
:102210006BE08FE30E945E07809100018823C1F389
:10222000109200012091BE013091BF0188EE93E031
:10223000289FE001299FD00D389FD00D11241092C6
:10224000BF011092BE0180910001811108C06BE0B6
:1022500084E40E945E07809100018823C1F31092FC
:1022600000018091BE019091BF0124E6289F80016A
:10227000299F100D11240C0F1D1F1092BF011092E9
:10228000BE0180910001811108C06BE089E40E94C9
:102290005E07809100018823C1F3109200018091B4
:1022A000BE019091BF01EC01CC0FDD1F880F991F7B
:1022B000880F991F880F991FC80FD91F1092BF014F
:1022C0001092BE0180910001811108C06BE08EE484
:1022D0000E945E07809100018823C1F38091BE01B6
:1022E0009091BF01080F191FC00FD11FD093030198
:1022F000C0930201DF91CF911F910F910895CF926A
:10230000DF92EF92FF928091B7018823B9F081307C
:1023100081F40E94230C6BE083E00E946F0C89E241
:1023200097E00E94780C0E94FA100E94230C1092F1
:10233000B701FF90EF90DF90CF9008950E94F304D3
:1023400060E08BE30E946F0CE0917701F0917801DF
:10235000628170E080E090E00E94840E8AE30E9437
:10236000740CE0917701F0917801618170E080E078
:1023700090E00E94840EC090B301D090B401E09030
:10238000B501F090B6016CE080E00E946F0CC114C2
:10239000D104E104F10409F4BAC0D701C601880FE1
:1023A000991FAA1FBB1F880F991FAA1FBB1F880F49
:1023B000991FAA1FBB1FC80ED91EEA1EFB1ECC0CFC
:1023C000DD1CEE1CFF1CCC0CDD1CEE1CFF1C20EAEF
:1023D000C21626E8D20621E0E206F10408F487C01E
:1023E000C701B60120EA36E841E050E00E944214FD
:1023F00080E3820F0E94AD0CC701B60120E137E2F5
:1024000040E050E00E944214CA01B9012AE030E0E5
:1024100040E050E00E94421480E3860F0E94AD0C21
:1024200065E187E10E946F0C8EE20E94740C6CE003
:102430008AE10E946F0CC701B60120E137E240E05B
:1024400050E00E9442146B017C0121E0C21AD108C5
:10245000E108F10820EAC21626E8D20621E0E206E9
:10246000F10408F063C06B017C0129EEC21A23E07D
:10247000D20AE108F10828E2C21623E2D206E104FA
:10248000F10408F457C06B017C0125E6C21AD1089B
:10249000E108F10824E8C21623E0D206E104F104C1
:1024A00008F453C06B017C012BE0C21AD108E1088B
:1024B000F1082AE5C216D104E104F10450F42AE03F
:1024C00030E040E050E00E94421480E3820F0E941E
:1024D000AD0C65E18BE20E946F0C83E297E00E94F5
:1024E0009A0CFF90EF90DF90CF900C94BA1080E39D
:1024F0000E94AD0CC701B60120E137E240E050E098
:102500000E94421480E3820F0E94AD0C89CF80E2CA
:1025100097E00E94710E65E187E10E946F0C8EE2E8
:102520000E94740C6CE08AE10E946F0C80E30E94B0
:10253000AD0CCFCF28EE33E040E050E00E944214D3
:1025400080E3820F0E94AD0CC4CF24E630E040E06F
:1025500050E00E94421480E3820F0E94AD0CB9CF7C
:102560001F920F920FB60F9211248F939F93809119
:10257000B801882361F08091B2018F5F8093B2012E
:102580009F918F910F900FBE0F901F90189581E033
:102590008093B8018093B2018093B10180ED93E004
:1025A0009093890080938800809181008D60809352
:1025B000810080916F00826080936F009F918F9166
:1025C0000F900FBE0F901F9018951F920F920FB68D
:1025D0000F9211242F933F934F935F936F937F93A9
:1025E0008F939F93AF93BF938091B1014091B201BC
:1025F00020910201309103016091B101853008F40E
:1026000040C0429FC001439F900D112470E00E9482
:102610002E14CB01A0E0B0E08093B3019093B401FD
:10262000A093B501B093B6018091B3019091B4012C
:10263000A091B501B091B601892B8A2B8B2BA1F00B
:102640001092B20181E08093B101BF91AF919F914F
:102650008F917F916F915F914F913F912F910F904B
:102660000FBE0F901F90189580918100827F8093FC
:10267000810080916F008D7F80936F001092B80170
:10268000E4CF429FC001439F900D112470E00E944F
:102690002E14CB01A0E0B0E08093B3019093B4017D
:1026A000A093B501B093B6018091B1018F5F809383
:1026B000B101CBCFCF93DF931F92CDB7DEB784B1FB
:1026C0008C6284B924988CB580658CBD8DB5898366
:1026D0008EB589830F90DF91CF9108958EBD0DB493
:1026E00007FEFDCF08951F920F920FB60F9211248F
:1026F0008F93EF93FF93E091B901F0E0EF5FFD4F0F
:102700008081811110C08CB58F778CBD81E0809362
:1027100004011092B901FF91EF918F910F900FBEBC
:102720000F901F901895E091B90181E08E0F809372
:10273000B901F0E0EF5FFD4F80818EBDFF91EF9119
:102740008F910F900FBE0F901F90189585E090E02D
:102750009093C5008093C400E1ECF0E0808188692B
:102760008083E2ECF0E08081866080831092BD017E
:102770001092BC011092BB011092BA010895CF9340
:10278000DF93EC0188818823E1F030E0DE012091C5
:10279000BB019091BA012917D1F39091BB019F5FC2
:1027A0009F739093BB01E091BB01F0E0EF5BFD4FA5
:1027B00090819C933F5FDE01A30FB11D9C9191110D
:1027C000E6CFDF91CF9108951F920F920FB60F922F
:1027D00011248F939F93EF93FF939091BD0180916C
:1027E000BC019817A9F0E091BD01EF5FEF73E09392
:1027F000BD01F0E0EF57FD4F80818093C600FF914F
:10280000EF919F918F910F900FBE0F901F90189591
:102810008091C1008F7D8093C100F1CF1F920F92F4
:102820000FB60F9211248F939F93EF93FF93809194
:10283000C600E091BA01EF5FEF73E093BA019091A7
:10284000BB01F0E0EF5BFD4F8083FF91EF919F9123
:102850008F910F900FBE0F901F901895AA1BBB1B56
:1028600051E107C0AA1FBB1FA617B70710F0A61B90
:10287000B70B881F991F5A95A9F780959095BC01B1
:10288000CD010895A1E21A2EAA1BBB1BFD010DC0AC
:10289000AA1FBB1FEE1FFF1FA217B307E407F50710
:1028A00020F0A21BB30BE40BF50B661F771F881FEC
:1028B000991F1A9469F760957095809590959B0182
:1028C000AC01BD01CF010895052E97FB1EF40094C5
:1028D0000E947B1457FD07D00E94421407FC03D0CE
:1028E0004EF40C947B1450954095309521953F4FB4
:1028F0004F4F5F4F089590958095709561957F4FEC
:0A2900008F4F9F4F0895F894FFCF0A
:10290A0001011A08012D012901250121011D0118C2
:10291A000113010F010B0107010301FF00490145E2
:10292A000141013D01390135013101232323000011
:00000001FF
